:020000040000FA
:100000000C9442010C9473010C9473010C947301D1
:100010000C9473010C9473010C9473010C94730190
:100020000C9473010C9473010C9473010C94730180
:100030000C9473010C9473010C9473010C94730170
:100040000C9473010C9473010C9473010C94730160
:100050000C9473010C9473010C9473010C94D506E9
:100060000C9473010C9473010C9473010C94730140
:100070000C9473010C9473010C9473010C94730130
:100080000C9473010C9473010C9473010C94730120
:100090000C9473010C9473010C9473010C941F075E
:1000A0000C9473010C9473010C9473010C94730100
:1000B0000C9473010C9473010C9473010C947301F0
:1000C0000C9473010C9473010C9473010C947301E0
:1000D0000C9473010C9473010C9473010C947301D0
:1000E0000C9473010C94CA010C9467030C94C00126
:1000F0000C9458030C9481030C947A030C94930190
:100100000C94A5010C94B8010C94400C0C9456036B
:100110000C94C4040C9455030C9443080C949D0156
:100120000C94A8010C94DB050C94CE010C94BC013A
:100130000C94C5040C94BB020C94D3010C94AE0334
:100140000C94C6010C9457030C94AE010C94D4018A
:100150000C94B2010C94A1010C94D8010C94990157
:1001600000002100240027002A002D003000330069
:1001700001010000040107010A010000220025001E
:1001800028002B002E003100340002010000050180
:1001900008010B01000020002300260029002C008C
:1001A0002F003200000100000301060109010505CE
:1001B0000505070508080808020202020A0A0808DD
:1001C000040404040101010101010101030303030B
:1001D00003030303040707070C0C0C0C0C0C0C0C9A
:1001E0000202020206060606060606060B0B0B0BAB
:1001F0000B0B0B0B010210202008081020401020D0
:1002000040800201020108040201010204081020DA
:1002100040808040201008040201800402018040D8
:100220002010080402010804020101020408102041
:100230004080010204081020408000000A0B0209DF
:100240000C0D0E0807030401000000000000000070
:10025000000000000000000000000000000000009E
:10026000000000000000121110000000000000005B
:10027000000000000000000000000000000000007E
:100280004308400C11241FBECFEFD1E2DEBFCDBF2B
:1002900000E00CBF27E0ACEAB5E001C01D92A53A32
:1002A000B207E1F715E0A0E0B2E0E4E5FDE100E02F
:1002B0000BBF02C007900D92AC3AB107D9F711E01D
:1002C000C1E4D1E000E006C021970109802FFE01C2
:1002D0000E94660CC034D10780E00807A9F70E948D
:1002E00033090C94980E0C9400008150823108F070
:1002F0005AC0E82FF0E08827EF57FE4F8F4F0C943D
:10030000660CA101A501930199019D01D301A801EA
:10031000AE01B201B801BC01C001C601CA01D301DE
:10032000CE01D401D801809180008F778093800026
:100330000895809180008F7DF9CF80918000877F24
:10034000F5CF84B58F7784BD089584B58F7DFBCFBD
:100350008091B0008F778093B00008958091B000B5
:100360008F7DF9CF809190008F77809390000895D2
:10037000809190008F7DF9CF80919000877FF5CF9D
:100380008091A0008F778093A00008958091A000B5
:100390008F7DF9CF8091A000877FF5CF80912001DC
:1003A0008F77809320010895809120018F7DF9CF70
:1003B00080912001877FF5CFCF93DF93282F30E006
:1003C000F901E65CFD4F8491F901EC50FE4FD491A8
:1003D000F901E255FE4FC491CC23A1F081110E9496
:1003E0007501EC2FF0E0EE0FFF1FEC56FE4FA591CC
:1003F000B491EC91ED2381E090E009F480E0DF918D
:10040000CF91089580E090E0FACF1F93CF93DF93D0
:10041000282F30E0F901E65CFD4F8491F901EC50A2
:10042000FE4FD491F901E255FE4FC491CC23A9F0BF
:10043000162F81110E947501EC2FF0E0EE0FFF1FC7
:10044000E658FE4FA591B4918FB7F894EC91111135
:1004500008C0D095DE23DC938FBFDF91CF911F9131
:100460000895DE2BF8CFCF93DF9390E0FC01EC50A2
:10047000FE4F249182559E4FFC0184918823D1F038
:1004800090E0880F991FFC01E05AFE4FA591B491AE
:10049000FC01E658FE4FC591D49161110EC09FB783
:1004A000F8948C91E22FE0958E238C932881E2239F
:1004B000E8839FBFDF91CF9108958FB7F894EC91B7
:1004C000E22BEC938FBFF6CF3FB7F8948091B30641
:1004D0009091B406A091B506B091B60626B5A89B3A
:1004E00005C02F3F19F00196A11DB11D3FBFBA2FC6
:1004F000A92F982F8827BC01CD01620F711D811D86
:10050000911D42E0660F771F881F991F4A95D1F70A
:1005100008958F929F92AF92BF92CF92DF92EF9207
:10052000FF924B015C010E9464026B017C010E94FE
:1005300064026C197D098E099F09683E734081052C
:100540009105A8F321E0821A9108A108B10888EE6C
:10055000C80E83E0D81EE11CF11C81149104A10493
:10056000B10429F7FF90EF90DF90CF90BF90AF904C
:100570009F908F900895AF92BF92CF92DF92EF92AB
:10058000FF920F931F93CF93DF936C017B018B013D
:10059000040F151FEB015E01AE18BF08C017D1078D
:1005A00059F06991D601ED91FC910190F081E02D17
:1005B000C6011995892B79F7C501DF91CF911F915C
:1005C0000F91FF90EF90DF90CF90BF90AF90089584
:1005D000FB0144815581608171810C94BB022091A3
:1005E0001A06260F3327331F21323105ECF42091F0
:1005F0004006FC0190E080E0243069F082E008953C
:10060000A0911A062191AC0148505A4FA40FB52F62
:10061000B11D2C930196861798F380911A06680FE6
:1006200060931A0680E0089581E0089510924006D4
:1006300081E0809342061092410661E084E10E94CD
:10064000050261E085E10E940502E9EBF0E08081AE
:100650008E7F808380818D7F808388E48093B80043
:1006600085E48093BC000895CF93DF9391E090934D
:10067000F7058823B9F0C091B800D091BA008091F5
:10068000BC008A7B8093BC0060E084E10E9405028C
:1006900060E085E10E9405020E941603D093BA0033
:1006A000C093B800DF91CF910895089508950895FB
:1006B000E091EF058091EE05E81730F4F0E0E253A9
:1006C000FA4F808190E008958FEF9FEF0895909109
:1006D000EF058091EE052FEF3FEF981748F4E92FD3
:1006E000F0E0E253FA4F208130E09F5F9093EF05F6
:1006F000C90108958091EE059091EF05891B990B32
:100700000895CF92DF92EF92FF920F931F93CF93B2
:10071000DF937C01CB018A012091CD05222389F052
:10072000EB016B01C40ED51ECC15DD0569F0699196
:10073000D701ED91FC910190F081E02DC701199551
:10074000F3CF642F0E94EF02C801DF91CF911F9178
:100750000F91FF90EF90DF90CF900895CF93DF93AC
:100760001F92CDB7DEB769832091CD052223F9F022
:100770002091F005203258F021E030E0FC01338375
:10078000228390E080E00F90DF91CF9108958091D7
:10079000F105E82FF0E0E355FA4F998190838F5FE0
:1007A0008093F1058093F00581E090E0ECCF61E06B
:1007B000CE0101960E94EF02F7CFCF92DF92EF9227
:1007C000FF920F931F93CF93DF93FC01C48121E02D
:1007D0002093CD05C093AC051092F1051092F00561
:1007E0008385682B87EB96E00E94AE03D091F005DD
:1007F000D13208F092C00E9464026B017C018091AA
:100800004006811165C082E08093400681E08093BC
:1008100042068FEF80933F0610926406D0936306E2
:10082000ADEAB5E0E3E4F6E080E0D81385C01092CD
:10083000650680916506CC0FC82BC0936506809134
:100840004106813009F07CC0109241060E9464028A
:100850006B017C01809165068093BB008091F3055C
:100860009091F405A091F505B091F605892B8A2B9E
:100870008B2B99F00E9464020091F3051091F4050E
:100880002091F5053091F6056C197D098E099F09B7
:100890000617170728073907E0F18091BC0083FD90
:1008A000D9CF85EC8093BC000E9464026B017C016F
:1008B00080914006823009F445C080913F068F3F09
:1008C00061F180913F06803241F180913F0625C061
:1008D0008091F3059091F405A091F505B091F6058E
:1008E000892B8A2B8B2B09F48ACF0E9464020091FA
:1008F000F3051091F4052091F5053091F6056C197A
:100900007D098E099F09061717072807390708F080
:1009100076CF8091F2050E9434031092F105109277
:10092000F0051092CD05DF91CF911F910F91FF90AF
:10093000EF90DF90CF9008959D9191938F5F75CF49
:1009400085EEB0CF8091F3059091F405A091F50567
:10095000B091F605892B8A2B8B2B09F4A9CF0E9425
:1009600064020091F3051091F4052091F505309192
:10097000F6056C197D098E099F09061717072807C8
:10098000390708F095CFC5CF089590E080E008952D
:100990008091AA069091AB061816190644F488E0D7
:1009A0008093A00760E085E997E00C94DD03109246
:1009B000A007F8CFCF93DF931092AB061092AA0650
:1009C0001092AD061092AC06C6E1D0E08C2F0E94CA
:1009D000DC01892BE9F08091AA069091AB06019683
:1009E0009093AB068093AA068091AC069091AD06D9
:1009F0009C012F5F3F4F3093AD062093AC06880FCC
:100A0000991FFC01E859F94FCE01469791838083E5
:100A10002196C433D105D1F686E30E94DC01892BEF
:100A2000E9F08091AA069091AB0601969093AB06EF
:100A30008093AA068091AC069091AD069C012F5F31
:100A40003F4F3093AD062093AC06880F991FFC01F1
:100A5000E859F94F8EE190E09183808387E30E940B
:100A6000DC01892BE9F08091AA069091AB060196F2
:100A70009093AB068093AA068091AC069091AD0648
:100A80009C012F5F3F4F3093AD062093AC06880F3B
:100A9000991FFC01E859F94F8FE190E09183808321
:100AA00088E30E94DC01892BE9F08091AA069091ED
:100AB000AB0601969093AB068093AA068091AC0694
:100AC0009091AD069C012F5F3F4F3093AD06209370
:100AD000AC06880F991FFC01E859F94F80E290E0BD
:100AE00091838083DF91CF9108950F931F93CF93CC
:100AF0008C01C62F0E94DD036C2F6460C8010E9428
:100B0000DD036C2F6B7FC8010E94DD0383EC90E056
:100B10000197F1F7CF911F910F9108950F931F93B4
:100B2000CF93DF938C01D62FC42F607F642B0E945C
:100B3000750580E1D89FB00111246C2BC801DF91AD
:100B4000CF911F910F910C947505CF93DF9300D037
:100B500000D01F921F92CDB7DEB728E0E0E3F2E0AD
:100B6000DE01119601900D922A95E1F7FC01208596
:100B7000261708F46FEF70E0660F771F21E030E072
:100B80002C0F3D1F620F731FFB016081606840E006
:100B900028960FB6F894DEBF0FBECDBFDF91CF9180
:100BA0000C948E0540E061E00E948E058BE39FE18E
:100BB0000197F1F7089541E00E948E0581E090E0F1
:100BC00008950F931F93CF93DF93EC011092EF05DD
:100BD0001092EE051092F1051092F0050E94160396
:100BE00085E593E0909319068093180686E593E0D7
:100BF00090931D0680931C061D828A85823010F01A
:100C000098E09D83888762E370E080E090E00E9436
:100C100089026B85CE010E94DD0368EE73E080E0FF
:100C200090E00E94890260E3CE010E9475050BE40A
:100C300016E4C8010197F1F760E3CE010E94750543
:100C4000C8010197F1F760E3CE010E94750583E5C5
:100C500092E00197F1F760E2CE010E9475056D8187
:100C6000606240E0CE010E948E0584E08E8340E009
:100C70006CE0CE010E948E05CE010E94D20582E07A
:100C80008F8340E066E0CE010E948E0540E062E086
:100C9000CE010E948E058BE39FE10197F1F7DF9172
:100CA000CF911F910F910895EF92FF920F931F9391
:100CB000CF93DF93EC017B01198218821B821A8289
:100CC0001D821C82FB0101900020E9F731978F0102
:100CD000061B170BB8016F5F7F4F90E080E00E940A
:100CE000A70D0097B9F0998388831B830A832C8111
:100CF0003D81232B11F4FC0110821D830C83B7016D
:100D000088819981DF91CF911F910F91FF90EF9092
:100D10000C94910E88819981009711F00E941E0D0C
:100D2000198218821D821C821B821A82DF91CF9148
:100D30001F910F91FF90EF90089585ED8093BC0077
:100D40008091F3059091F405A091F505B091F60519
:100D50000796A11DB11D23E0B695A7959795879598
:100D60002A95D1F72091BC0024FD03C010924006C3
:100D700008954091F3055091F4056091F505709147
:100D8000F605452B462B472B69F30097A105B105C6
:100D900041F02AE22A95F1F700C00197A109B109B3
:100DA000E1CF8091F2050C9434031F920F920FB69D
:100DB0000F9211242F933F938F939F93AF93BF93E1
:100DC0008091AF069091B006A091B106B091B206A5
:100DD0003091AE0623E0230F2D3758F50196A11D63
:100DE000B11D2093AE068093AF069093B006A093FA
:100DF000B106B093B2068091B3069091B406A0916B
:100E0000B506B091B6060196A11DB11D8093B3063B
:100E10009093B406A093B506B093B606BF91AF9178
:100E20009F918F913F912F910F900FBE0F901F9028
:100E3000189526E8230F0296A11DB11DD2CF1F924F
:100E40000F920FB60F9211240BB60F922F933F9370
:100E50004F935F936F937F938F939F93AF93BF93C2
:100E6000EF93FF938091B900887F803609F44DC0DD
:100E700008F040C0883209F4A9C028F5803109F48F
:100E80009DC0C8F4882309F4FBC0883009F496C0DB
:100E9000FF91EF91BF91AF919F918F917F916F9152
:100EA0005F914F913F912F910F900BBE0F900FBE0E
:100EB0000F901F901895883109F488C0803241F74F
:100EC00080933F0614C0803409F49DC040F4803301
:100ED000B9F38833E9F680933F0685ECB0C08035DE
:100EE00009F485C0883509F496C0883489F60E94D3
:100EF0009D06CECF883909F48CC038F5883729F0A3
:100F000050F4883611F0803719F683E0809340065C
:100F100010923E0657C0883809F47BC0803919F01A
:100F2000803809F0B5CF80913E06803208F071C05C
:100F3000E0913E0681E08E0F80933E068091BB00DB
:100F4000F0E0E25EF94F80833DC0803B39F0E0F491
:100F5000803A09F479C0883A09F09ACF84E0809306
:100F6000400610921B0610921A06E0911806F091A6
:100F70001906199580911A0681110FC081E080939E
:100F80001A061092F80509C0803C09F4A6CF883CE7
:100F900009F4A3CF883B09F07BCFE0911B0681E0E9
:100FA0008E0F80931B06F0E0E850FA4F808180930B
:100FB000BB0090911B0680911A0629C0809165069E
:100FC0008093BB0085EC8093BC0062CF9091640657
:100FD00080916306981758F5E091640681E08E0FC2
:100FE00080936406F0E0ED5BF94F8081E9CFE091FA
:100FF000640681E08E0F809364068091BB00F0E070
:10100000ED5BF94F80839091640680916306981799
:10101000C8F285E8D8CFE091640681E08E0F809316
:1010200064068091BB00F0E0ED5BF94F8083809116
:10103000420681115CCF81E08093410684EA80936F
:10104000BC001092400624CF85EC8093BC00109227
:10105000400680913E06803230F4E0913E06F0E09A
:10106000E25EF94F108260913E0670E0E0911C064E
:10107000F0911D068EE196E0199510923E0608CF7C
:1010800010923F0634CFE7EBF6E01382128288EE2F
:1010900093E0A0E0B0E084839583A683B7838CE3DC
:1010A00092E091838083E5E9F7E0138212822EE4D7
:1010B00032E03183208387E2848398E2918782E063
:1010C00082871386E9E8F7E0138212823183208356
:1010D00026E2248391878287138666E572E083EC9B
:1010E00096E00E94540661E672E089EC96E00E9468
:1010F000540661E772E08FEC96E00E9454066AE7BE
:1011000072E085ED96E00E9454066FE972E08BED87
:1011100096E00E94540667EC72E081EE96E00E9431
:1011200054066CEE72E087EE96E00E94540660E191
:1011300073E08DEE96E00E94540663E273E083EF65
:1011400096E00E94540669E373E089EF96E00E94FE
:1011500054066FE473E08FEF96E00E94540668E651
:1011600073E085E097E00E94540660E873E08BE04E
:1011700097E00E9454066EE973E081E197E00E94D7
:1011800054066FEB73E087E197E00E9454066FED21
:1011900073E08DE197E00E94540660EF73E083E214
:1011A00097E00E94540660E174E089E297E00E94B3
:1011B000540667E374E08FE297E00E9454066DE501
:1011C00074E085E397E00E9454066CE774E08BE3DB
:1011D00097E00E94540663E974E081E497E00E947E
:1011E00054066CE774E087E497E00E9454066BEACB
:1011F00074E08DE497E00E94540660EC74E083E5AF
:1012000097E00E9454066EED74E089E597E00E9435
:1012100054066EEF74E08FE597E00E9454066AE191
:1012200075E085E697E00E94540667E375E08BE67B
:1012300097E00E94540662E575E081E797E00E941E
:10124000540663E675E087E797E00E94540662E87B
:1012500075E08DE797E00E94540665E975E083E844
:1012600097E00C945406789484B5826084BD84B56C
:10127000816084BD85B5826085BD85B5816085BD91
:1012800080916E00816080936E0010928100809149
:1012900081008260809381008091810081608093D1
:1012A0008100809180008160809380008091B100F6
:1012B00084608093B1008091B00081608093B00021
:1012C0008091910082608093910080919100816073
:1012D0008093910080919000816080939000809134
:1012E000A10082608093A1008091A1008160809321
:1012F000A1008091A00081608093A00080912101D5
:10130000826080932101809121018160809321017D
:101310008091200181608093200180917A00846017
:1013200080937A0080917A00826080937A00809125
:101330007A00816080937A0080917A00806880933F
:101340007A001092C10085E997E00E94E10585E9E5
:1013500097E00E94D205C8E0C093A00760E085E94D
:1013600097E00E94DD0389E897E00E94E10589E8A3
:1013700097E00E94D205C093940760E089E897E067
:101380000E94DD03C6E160E08C2F0E943302CF5F34
:10139000C433C9F760E086E30E94330260E087E36C
:1013A0000E94330260E088E30E94330261E085E33B
:1013B0000E94330260E084E30E943302F0E0AF2E2B
:1013C000F2E0BF2EA0E26A2E0AE010E0B5E18B2E1B
:1013D000B2E09B2EC6E07C2ED0E0CD2ED0E0DD2EFC
:1013E000EE24E394F12CD0E0C0E084E30E94DC0121
:1013F000892B09F042C00E94DA040E94C80460E010
:1014000085E997E00E94A505F50101900020E9F724
:10141000AF014150524060E072E085E997E00E94E0
:10142000BB0261E085E3CA30D1059CF00E94050251
:1014300060ED77E080E090E00E94890260E085E363
:101440000E94050260ED77E080E090E00E94890252
:10145000CCCF0E94050264E670E080E090E00E943C
:10146000890260E085E30E94050264E670E080E0A6
:1014700090E00E9489022196B8CF0E94DA04C091C0
:10148000AA06D091AB0680916606909167068C17EC
:101490009D0774F461E085E30E94050264EF71E04A
:1014A00080E090E00E94890260E085E30E940502EE
:1014B000D0936706C0936606CA30D1050CF45AC0B3
:1014C000CE01B8010E94520C605D60932702CE01EC
:1014D000B8010E94520C805D8093280260E085E98B
:1014E00097E00E94A505F40101900020E9F7AF0103
:1014F0004651524065E172E085E997E00E94BB02E7
:101500000E94C8041092AD061092AC06C091AA06C3
:10151000D091AB06C130D10581F561E085E997E056
:101520000E94A505D093AD06C093AC0680916806D5
:1015300090916906789EB001799E700D11246D53CB
:10154000794F85E997E00E94E80260ED77E080E05E
:1015500090E00E94890285E997E00E94D20589E81F
:1015600097E00E94D205C114D10409F43CCF0E9437
:10157000000039CF60922702AACFC230D105C9F549
:1015800061E085E997E00E94A505F092AD06E09242
:10159000AC068091680690916906789EB001799EAC
:1015A000700D11246D53794F85E997E00E94E80290
:1015B00060E089E897E00E94A5058091AC069091D3
:1015C000AD069C012F5F3F4F3093AD062093AC06D4
:1015D000880F991FFC01E859F94F80819181789E0D
:1015E000B001799E700D11246D53794F89E897E011
:1015F000AACF23970CF4B7CF61E085E997E00E946A
:10160000A505F092AD06E092AC0680916806909137
:101610006906789EB001799E700D11246D53794F43
:1016200085E997E00E94E80260E089E897E00E947F
:10163000A5058091AC069091AD069C012F5F3F4FB0
:101640003093AD062093AC06880F991FFC01E85932
:10165000F94F80819181789EB001799E700D11249F
:101660006D53794F89E897E00E94E80261E089E8CC
:1016700097E00E94A5058091AC069091AD069C0173
:101680002F5F3F4F3093AD062093AC06880F991F14
:10169000FC01E859F94F80819181789EB001799ED3
:1016A000700D11246D53794F89E897E00E94E8028C
:1016B00060ED77E080E090E00E94890285E997E0A4
:1016C0000E94D20589E897E00E94D2058091AA067F
:1016D0009091AB0603979093AB068093AA068091F6
:1016E000AA069091AB06181619060CF03CCF60E0E4
:1016F00085E997E00E94A5058091AC069091AD0622
:101700009C012F5F3F4F3093AD062093AC06880FAE
:10171000991FFC01E859F94F80819181789EB001B1
:10172000799E700D11246D53794F85E997E00E94E1
:10173000E8028091AA069091AB0601979093AB06C0
:101740008093AA06892B59F161E085E997E00E9410
:10175000A5058091AC069091AD069C012F5F3F4F8F
:101760003093AD062093AC06880F991FFC01E85911
:10177000F94F80819181789EB001799E700D11247E
:101780006D53794F85E997E00E94E8028091AA069F
:101790009091AB0601979093AB068093AA06809137
:1017A000AA069091AB06892B59F160E089E897E091
:1017B0000E94A5058091AC069091AD069C012F5F1B
:1017C0003F4F3093AD062093AC06880F991FFC0164
:1017D000E859F94F80819181789EB001799E700D12
:1017E00011246D53794F89E897E00E94E8028091B7
:1017F000AA069091AB0601979093AB068093AA0638
:101800008091AA069091AB06892B59F161E089E895
:1018100097E00E94A5058091AC069091AD069C01D1
:101820002F5F3F4F3093AD062093AC06880F991F72
:10183000FC01E859F94F80819181789EB001799E31
:10184000700D11246D53794F89E897E00E94E802EA
:101850008091AA069091AB0601979093AB06809376
:10186000AA0660ED77E080E090E00E94890285E9B9
:1018700097E00E94D20589E897E00E94D2052FCF19
:10188000CF93DF93C9E8D7E02697888199810097A5
:1018900011F00E941E0D86E0C33CD807A9F7DF9126
:1018A000CF91089597FB072E16F4009407D077FD8B
:1018B00009D00E946E0C07FC05D03EF490958195EE
:1018C0009F4F0895709561957F4F0895EE0FFF1F0C
:1018D000881F8BBF0790F691E02D1994AA1BBB1BA4
:1018E00051E107C0AA1FBB1FA617B70710F0A61B20
:1018F000B70B881F991F5A95A9F780959095BC0141
:10190000CD0108950F931F93CF93DF9382309105FC
:1019100010F482E090E0E091A307F091A40730E09A
:1019200020E0B0E0A0E0309799F42115310509F4EA
:101930004AC0281B390B24303105D8F58A819B8198
:101940006115710589F1FB0193838283FE0111C04A
:10195000408151810281138148175907E0F04817EF
:10196000590799F4109761F012960C9312971396F9
:101970001C933296CF01DF91CF911F910F91089563
:101980000093A3071093A407F4CF2115310551F05C
:101990004217530738F0A901DB019A01BD01DF01AD
:1019A000F801C1CFEF01F9CF9093A4078093A3076B
:1019B000CDCFFE01E20FF31F8193919322503109A5
:1019C00039832883D7CF2091A1073091A207232BF9
:1019D00041F420912C0230912D023093A2072093E4
:1019E000A10720912A0230912B022115310541F4E3
:1019F0002DB73EB740912E0250912F02241B350B7C
:101A0000E091A107F091A207E217F307A0F42E1BC3
:101A10003F0B2817390778F0AC014E5F5F4F241752
:101A2000350748F04E0F5F1F5093A2074093A10760
:101A3000819391939FCFF0E0E0E09CCFCF93DF9331
:101A40000097E9F0FC01329713821282A091A3075C
:101A5000B091A407ED0130E020E01097A1F42081BF
:101A60003181820F931F2091A1073091A20728177F
:101A7000390709F061C0F093A207E093A107DF9155
:101A8000CF910895EA01CE17DF07E8F54A815B811F
:101A90009E0141155105B1F7E901FB83EA834991A4
:101AA0005991C40FD51FEC17FD0761F48081918116
:101AB0000296840F951FE90199838883828193811F
:101AC0009B838A83F0E0E0E012968D919C911397BE
:101AD0000097B9F52D913C911197CD010296820F97
:101AE000931F2091A1073091A2072817390739F6D3
:101AF000309751F51092A4071092A307B093A20754
:101B0000A093A107BCCFD383C28340815181840FAE
:101B1000951FC817D90761F44E5F5F4F888199817F
:101B2000480F591F518340838A819B81938382830D
:101B30002115310509F0B0CFF093A407E093A30776
:101B40009ECFFD01DC01C0CF13821282D7CF4F920E
:101B50005F926F927F928F929F92AF92BF92CF923D
:101B6000DF92EF92FF920F931F93CF93DF938C013D
:101B7000009799F4CB01DF91CF911F910F91FF90C6
:101B8000EF90DF90CF90BF90AF909F908F907F901D
:101B90006F905F904F900C94820CFC01E60FF71F42
:101BA0009C0122503109E217F30708F4AEC0D901B5
:101BB000CD91DC911197C617D70720F1C530D1051B
:101BC00078F0CE0104978617970750F0C61BD70B05
:101BD0002297C193D1936D937C93CF010E941E0DE8
:101BE000C801DF91CF911F910F91FF90EF90DF908F
:101BF000CF90BF90AF909F908F907F906F905F90AD
:101C00004F9008955B01AC1ABD0A4C018C0E9D1ECD
:101C1000A091A307B091A407512C412CF12CE12CE9
:101C2000109731F58091A1079091A2078815990529
:101C300009F05CC04616570608F058C080912A0289
:101C400090912B02009741F48DB79EB740912E02E0
:101C500050912F02841B950BE817F90708F055C027
:101C6000F093A207E093A107F90171836083B8CFD5
:101C70008D919C91119712966C90129713967C906F
:101C80001397A815B90559F56C0142E0C40ED11C93
:101C9000CA14DB0420F1AC014A195B09DA0112967F
:101CA000159780F06282738251834083D9016D93CE
:101CB0007C93E114F10471F0D7011396FC93EE9339
:101CC00012978ECF22968C0F9D1FF90191838083EE
:101CD000F301EFCFF093A407E093A30781CF481659
:101CE000590608F42C017D01D3019ACFCB010E9443
:101CF000820C7C01009749F0AE01B8010E94880E69
:101D0000C8010E941E0D87016BCF10E000E068CF74
:101D1000FB01DC0102C001900D9241505040D8F708
:101D20000895FB01DC0101900D920020E1F7089578
:101D300011E0C1E4D1E000E006C0802FFE010E9466
:101D4000660C2196011DC234D10780E00807A9F76F
:101D5000F894FFCF2020202049474E4954494F4E48
:101D6000204F4E2020202020004F70656E20446FB1
:101D70006F727320436F756E743D20202000000049
:101D8000A50780000000400014005400000000007F
:101D9000AE038103C50457037A03670358030000A9
:101DA0000000DB05BB02C504C404456E74727920D3
:101DB000446F6F72004D6F746F72686F6D65205362
:101DC0006C69646500536B796C6967687400536B68
:101DD000796C69676874204F706171756520536311
:101DE0007265656E206E6F742052657472616374E3
:101DF000656400536B796C6967687420496E73651C
:101E000063742053637265656E206973206E6F740E
:101E10002052657472616374656400526967687406
:101E2000204B69746368656E204F766572686561E2
:101E30006420437570626F61726420446F6F72003A
:101E40004C656674204B69746368656E204F7665D7
:101E5000726865616420437570626F6172642044CA
:101E60006F6F7200546F70204B69746368656E20E9
:101E7000447261776572004D6964646C65204B69DA
:101E8000746368656E2044726177657200426F7496
:101E9000746F6D204B69746368656E20447261775E
:101EA000657200556E6465722D53696E6B204375C3
:101EB00070626F61726420446F6F720057696E6563
:101EC00020536C69646520436162696E65742044C7
:101ED0006F6F72005574696C69747920556E646512
:101EE000722042656E636820466C61702D446F6F8E
:101EF00072005269676874205574696C697479203E
:101F0000556E6465722D42656E6368204472617718
:101F10006572004C656674205574696C697479202B
:101F2000556E6465722D42656E63682044726177F8
:101F3000657200495420437570626F617264204479
:101F40006F6F7200526967687420466C6F6F722DF4
:101F50004C6576656C20437570626F6172642044D5
:101F60006F6F720052696768742D43656E74726595
:101F700020466C6F6F722D4C6576656C20437570D2
:101F8000626F61726420446F6F72004C6566742DDD
:101F900043656E74726520466C6F6F722D4C65766A
:101FA000656C20437570626F61726420446F6F725C
:101FB000004C65667420466C6F6F722D4C657665BB
:101FC0006C20437570626F61726420446F6F7200A1
:101FD000526967687420466C6F6F722D4C65766528
:101FE0006C2044726177004D6964646C6520466CB6
:101FF0006F6F722D4C6576656C204472617700427C
:10200000617468726F6F6D20536964696E672044F4
:102010006F6F7200526967687420556E6465722D27
:1020200056616E69747920446F6F72202848575347
:1020300029004C6566742042617468726F6F6D2070
:10204000556E6465722D56616E69747920446F6FA8
:1020500072005269676874204F7665722D48656119
:1020600064204C6F636B657220446F6F7200436530
:102070006E747265204F7665722D48656164204CE0
:102080006F636B657220446F6F72004C65667420DD
:102090004F7665722D48656164204C6F636B657285
:1020A00020446F6F720042617468726F6F6D7320AD
:1020B00057696E646F770053686F726520506F7751
:1020C0006572206973207374696C6C20636F6E6E27
:1020D0006563746564004472697665722D53696442
:1020E00065204C6F636B65720050617373656E673A
:1020F00065722D53696465204C6F636B65720000D7
:020000040003F7
:10E000000D9489F10D94B2F10D94B2F10D94B2F129
:10E010000D94B2F10D94B2F10D94B2F10D94B2F1F0
:10E020000D94B2F10D94B2F10D94B2F10D94B2F1E0
:10E030000D94B2F10D94B2F10D94B2F10D94B2F1D0
:10E040000D94B2F10D94B2F10D94B2F10D94B2F1C0
:10E050000D94B2F10D94B2F10D94B2F10D94B2F1B0
:10E060000D94B2F10D94B2F10D94B2F10D94B2F1A0
:10E070000D94B2F10D94B2F10D94B2F10D94B2F190
:10E080000D94B2F10D94B2F10D94B2F10D94B2F180
:10E090000D94B2F10D94B2F10D94B2F10D94B2F170
:10E0A0000D94B2F10D94B2F10D94B2F10D94B2F160
:10E0B0000D94B2F10D94B2F10D94B2F10D94B2F150
:10E0C0000D94B2F10D94B2F10D94B2F10D94B2F140
:10E0D0000D94B2F10D94B2F10D94B2F10D94B2F130
:10E0E0000D94B2F141546D656761323536300041AF
:10E0F000726475696E6F206578706C6F72657220DE
:10E1000073746B3530305632206279204D4C530099
:10E11000426F6F746C6F616465723E004875683F52
:10E1200000436F6D70696C6564206F6E203D200048
:10E130004350552054797065202020203D20005FF9
:10E140005F4156525F415243485F5F3D2000415658
:10E1500052204C696243205665723D20004743437C
:10E160002056657273696F6E203D20004350552024
:10E1700049442020202020203D20004C6F7720663D
:10E18000757365202020203D20004869676820665F
:10E190007573652020203D200045787420667573D6
:10E1A00065202020203D20004C6F636B2066757336
:10E1B000652020203D20004D617220203720323024
:10E1C000313300312E362E3800342E332E350056A2
:10E1D00023202020414444522020206F7020636F70
:10E1E00064652020202020696E73747275637469E1
:10E1F0006F6E2061646472202020496E74657272B3
:10E20000757074006E6F20766563746F7200726A49
:10E210006D702020006A6D70200057686174207056
:10E220006F72743A00506F7274206E6F7420737541
:10E2300070706F72746564004D7573742062652030
:10E2400061206C6574746572002000577269747483
:10E25000696E672045450052656164696E672045B7
:10E26000450045452065727220636E743D00504F35
:10E27000525400303D5A65726F2061646472003FF1
:10E280003D43505520737461747300403D454550C3
:10E29000524F4D207465737400423D426C696E6B41
:10E2A000204C454400453D44756D70204545505215
:10E2B0004F4D00463D44756D7020464C415348001B
:10E2C000483D48656C70004C3D4C69737420492F83
:10E2D0004F20506F72747300513D51756974005234
:10E2E0003D44756D702052414D00563D73686F7707
:10E2F00020696E7465727275707420566563746FF0
:10E30000727300593D506F727420626C696E6B00BD
:10E310002A0011241FBECFEFD1E2DEBFCDBF01E046
:10E320000CBF12E0A0E0B2E0EEE1FDEF03E00BBFB6
:10E3300002C007900D92A030B107D9F712E0A0E01B
:10E34000B2E001C01D92AE30B107E1F70F9460F367
:10E350000D948DFE01E20EBF0FEF0DBF11241FBE05
:10E360000D9460F30D9400F020E030E040ED57E0B4
:10E3700005C0FA013197F1F72F5F3F4F2817390792
:10E38000C0F308959C01260F311DC901A0E0B0E043
:10E390002F5F3F4FABBFFC018791882361F08093D3
:10E3A000C6008091C00086FFFCCF8091C0008064D1
:10E3B0008093C000EACF08958DE08093C6008091DD
:10E3C000C00086FFFCCF8091C00080648093C000B5
:10E3D0008AE08093C6008091C00086FFFCCF8091C8
:10E3E000C00080648093C00008950F94C2F10F9420
:10E3F000DCF10895FC019081992359F09093C600B7
:10E400008091C00086FFFCCF8091C0008064809323
:10E41000C0003196992379F70895282F982F929567
:10E420009F70892F805D8A3308F0895F8093C600D2
:10E430008091C00086FFFCCF8091C00080648093F3
:10E44000C000822F8F70982F905D9A3308F0995FEB
:10E450009093C6008091C00086FFFCCF8091C000E1
:10E4600080648093C00008959C01FB01853691056E
:10E470001CF46330710594F0C90164E670E00F94F8
:10E480002EFE605D7F4F6093C6008091C00086FFC6
:10E49000FCCF8091C00080648093C0002B30310598
:10E4A00014F43297B4F0C90164E670E00F942EFEC4
:10E4B0006AE070E00F942EFE605D7F4F6093C600AF
:10E4C0008091C00086FFFCCF8091C0008064809363
:10E4D000C000C9016AE070E00F942EFEC0968093E0
:10E4E000C6008091C00086FFFCCF8091C000806490
:10E4F0008093C00008951F93182F8EE692EE60E07F
:10E500000F94C2F11093C6008091C00086FFFCCF2B
:10E510008091C00080648093C0000F94DCF11F9153
:10E5200008952F923F924F925F926F927F928F92B7
:10E530009F92AF92BF92CF92DF92EF92FF920F9392
:10E540001F93DF93CF93CDB7DEB762970FB6F894E2
:10E55000DEBF0FBECDBF382E622ECA01DB015C01CB
:10E560006D01772420E2222E2E010894411C511CBB
:10E570008BC081E0A81680E0B80681E0C80680E084
:10E58000D80628F0C601AA27BB270F940DF2BB2797
:10E59000AD2D9C2D8B2D0F940DF28A2D0F940DF225
:10E5A0002092C6008091C00086FFFCCF8091C00001
:10E5B00080648093C0009DE29093C6008091C0006B
:10E5C00086FFFCCF8091C00080648093C0002092C1
:10E5D000C6008091C00086FFFCCF8091C00080649F
:10E5E0008093C00019828601750188249924A1E0D6
:10E5F0003A1651F03A1620F0B2E03B1661F409C029
:10E600000BBFF701779007C0C7010F9477FE782EF4
:10E6100002C0F7017080872D0F940DF22092C60082
:10E620008091C00086FFFCCF8091C0008064809301
:10E63000C000872D8052F401EF70F0708F3520F408
:10E64000E40DF51D708204C0E40DF51D8EE280839B
:10E650000894E11CF11C011D111D0894811C911CE2
:10E6600090E18916910409F0C2CF80E190E0A0E02A
:10E67000B0E0A80EB91ECA1EDB1E198AC2010F9493
:10E68000FAF10F94DCF16A94662009F072CF629679
:10E690000FB6F894DEBF0FBECDBFCF91DF911F91B3
:10E6A0000F91FF90EF90DF90CF90BF90AF909F9031
:10E6B0008F907F906F905F904F903F902F90089534
:10E6C0002F923F924F925F926F927F928F929F9282
:10E6D000AF92BF92CF92DF92EF92FF920F931F9370
:10E6E000DF93CF93CDB7DEB7CD53D1400FB6F894BB
:10E6F000DEBF0FBECDBF01E20EBF0FEF0DBF94B75F
:10E70000F894A89514BE80916000886180936000A1
:10E7100010926000789493FF05C0E0910002F091A0
:10E7200001021995279A2F9A8091C00082608093E8
:10E73000C00080E18093C40088E18093C1000000A4
:10E74000EE24FF24870144E0A42EB12CCC24DD2448
:10E7500024C0C5010197F1F70894E11CF11C011DCB
:10E76000111D21E2E2162EE4F20620E0020720E06D
:10E77000120718F031E0C32ED12CC801B70127ECE5
:10E780003BE140E050E00F9441FE611571058105C9
:10E79000910519F485B1805885B98091C00087FD35
:10E7A00003C0C114D104A9F2A6014F5F5F4FC25E3E
:10E7B000DE4F59834883CE51D140C25EDE4F8881FF
:10E7C0009981CE51D140019711F00D9410FEC05D9A
:10E7D000DE4F19821882C053D14060E0C15DDE4F28
:10E7E0001882CF52D14088249924C35DDE4F19820C
:10E7F0001882CD52D140C05EDE4F188219821A8233
:10E800001B82C052D140CE5CDE4F188219821A8220
:10E810001B82C253D140EE24FF2487010BBFF701B6
:10E8200007911691C45CDE4F19830883CC53D14005
:10E830000D940BFEC25EDE4F28813981CE51D1404E
:10E840002130310509F52091C600C25EDE4F1982E4
:10E850001882CE51D14022C02F5F3F4F4F4F5F4FA4
:10E86000213082E138078AE7480780E0580780F0C6
:10E87000C45CDE4FE881F981CC53D140EF5FFF4F9C
:10E8800019F0EE27FF27099420E030E040E050E047
:10E890008091C00087FFE0CF2091C600C35DDE4FAE
:10E8A00048815981CD52D1404F5F5F4FC35DDE4FEC
:10E8B00059834883CD52D140213209F063C64A3092
:10E8C000510508F05FC60894811C911C53E0851621
:10E8D000910409F059C600E010E018C081E280936D
:10E8E000C6008091C00086FFFCCF8091C00080648C
:10E8F0008093C0002F5F3F4F2931310579F70F9486
:10E90000DCF10F5F1F4F0530110519F020E030E0FA
:10E91000E5CF10920A0210920B0210920C02109294
:10E920000D02109206021092070210920802109235
:10E930000902109202021092030210920402109235
:10E9400005028FEE90EE60E00F94F5F180E191EE1C
:10E9500060E00F94C2F18091C00087FFFCCF9091DE
:10E96000C600903608F09F759032B8F09093C600BC
:10E970008091C00086FFFCCF8091C00080648093AE
:10E98000C000A0E2A093C6008091C00086FFFCCF2B
:10E990008091C00080648093C000983409F4D7C18E
:10E9A0009934B8F4923409F459C1933458F490333B
:10E9B00019F1903308F4E3C59F33A1F1903409F0C5
:10E9C000DEC5BDC0953409F470C1963409F0D7C5D1
:10E9D00098C1923509F42BC2933538F49C3409F46C
:10E9E000F5C1913509F0CBC518C2963509F445C279
:10E9F000993509F0C4C567C483E792EE62E00F94CD
:10EA0000F5F110920602109207021092080210927D
:10EA1000090210920A0210920B0210920C0210923C
:10EA20000D0213C18FE792EE62E00F94F5F18FEEC5
:10EA300090EE60E00F94F5F181E291EE60E00F94CA
:10EA4000C2F187EB91EE60E00F94F5F180E391EE77
:10EA500060E00F94C2F184EE90EE60E00F94F5F167
:10EA60008FE391EE60E00F94C2F186E090E061E008
:10EA700070E00F9434F20F94DCF18DE591EE60E0DC
:10EA80000F94C2F189EC91EE60E00F94F5F18EE401
:10EA900091EE60E00F94C2F183EC91EE60E00F9490
:10EAA000F5F18CE691EE60E00F94C2F18EE10F94E7
:10EAB0000DF288E90F940DF281E00F940DF20F949E
:10EAC000DCF18BE791EE60E00F94C2F119E0E0E039
:10EAD000F0E010935700E4918E2F0F940DF20F94F5
:10EAE000DCF18AE891EE60E00F94C2F1E3E0F0E03F
:10EAF00010935700E4918E2F0F940DF20F94DCF1D8
:10EB000089E991EE60E00F94C2F1E2E0F0E0109349
:10EB10005700E4918E2F0F940DF20F94DCF188EAE8
:10EB200091EE60E00F94C2F1E1E0F0E01093570045
:10EB30001491812F0F940DF20F94DCF107CF8BE825
:10EB400092EE62E00F94F5F18BE492EE60E00F94A8
:10EB5000F5F10F94DCF100E010E019C0C8016F2D51
:10EB60000F947FFEFF2031F489E492EE60E00F9471
:10EB7000C2F10BC0F092C6008091C00086FFFCCFAE
:10EB80008091C00080648093C0000F5F1F4FC80158
:10EB900081519F41A0E0B0E0ABBFFC01F790BAE229
:10EBA000FB1621F0E2E000301E07C1F60F94DCF105
:10EBB0000F94DCF187E592EE60E00F94F5F10F948D
:10EBC000DCF1CC24DD2400E010E01EC0C8010F946D
:10EBD00077FEF82E882331F489E492EE60E00F94FA
:10EBE000C2F10BC08093C6008091C00086FFFCCFAD
:10EBF0008091C00080648093C000FE1419F00894D6
:10EC0000C11CD11C0F5F1F4FC80181519F41A0E063
:10EC1000B0E0ABBFFC01E790FAE2EF1621F022E092
:10EC20000030120799F60F94DCF10F94DCF182E6C4
:10EC300092EE60E00F94C2F1C60161E070E00F94C3
:10EC400034F20F94DCF10F94DCF110920202109276
:10EC50000302109204021092050278CE89E992EE26
:10EC600062E00F94F5F1279A2F9A16C02F9880E052
:10EC700090E0E0EDF7E03197F1F7019684369105E9
:10EC8000C1F72F9A80E090E0E0EDF7E03197F1F7DF
:10EC9000019684369105C1F78091C00087FFE6CFC9
:10ECA0008091C00087FFFCCF64C485EA92EE62E0E9
:10ECB0000F94F5F140910202509103026091040219
:10ECC0007091050281E020E10F9491F2809102029F
:10ECD00090910302A0910402B091050280509F4FD1
:10ECE000AF4FBF4F8093020290930302A0930402A0
:10ECF000B093050280509041A040B04008F426CE69
:10ED0000A4CF83EB92EE62E00F94F5F140910602FE
:10ED100050910702609108027091090280E020E1A1
:10ED20000F9491F28091060290910702A09108023F
:10ED3000B091090280509F4FAF4FBF4F80930602A2
:10ED400090930702A0930802B0930902FFCD80ECD4
:10ED500092EE62E00F94F5F183E792EE60E00F949B
:10ED6000F5F18FE792EE60E00F94F5F18BE892EE0B
:10ED700060E00F94F5F189E992EE60E00F94F5F10F
:10ED800085EA92EE60E00F94F5F183EB92EE60E09D
:10ED90000F94F5F180EC92EE60E00F94F5F187ECC2
:10EDA00092EE60E00F94F5F188ED92EE60E00F9442
:10EDB000F5F18FED92EE60E00F94F5F18AEE92EEB0
:10EDC00060E00F94F5F183E093EEBDCD87EC92EE19
:10EDD00062E00F94F5F181E40F947BF282E40F94EA
:10EDE0007BF283E40F947BF284E40F947BF285E45E
:10EDF0000F947BF286E40F947BF287E40F947BF20E
:10EE000088E40F947BF28AE40F947BF28BE40F94F6
:10EE10007BF28CE40F947BF299CD88ED92EE62E068
:10EE20000F94F5F1772473948824992409C48FED05
:10EE300092EE62E00F94F5F140910A0250910B02BC
:10EE400060910C0270910D0282E020E10F9491F22A
:10EE500080910A0290910B02A0910C02B0910D02D8
:10EE600080509F4FAF4FBF4F80930A0290930B0289
:10EE7000A0930C02B0930D0269CD8AEE92EE62E08F
:10EE80000F94F5F184EE90EE60E00F94F5F18FECC5
:10EE900091EE60E00F94F5F1662477244301CC5D98
:10EEA000DE4F19821882C452D140D401C301B695F5
:10EEB000A79597958795CA5DDE4F88839983AA8326
:10EEC000BB83C652D140CC5DDE4FA881B981C4520C
:10EED000D1401196CC5DDE4FB983A883C452D14096
:10EEE000CD0162E070E00F9434F2B0E2B093C6005E
:10EEF0008091C00086FFFCCF8091C0008064809329
:10EF0000C000EDE2E093C6008091C00086FFFCCF18
:10EF10008091C00080648093C000F0E2F093C6004E
:10EF20008091C00086FFFCCF8091C00080648093F8
:10EF3000C000CA5DDE4FE880F9800A811B81C6529D
:10EF4000D140BB27A12F902F8F2D0F940DF2CA5DBA
:10EF5000DE4F8881C652D1400F940DF2B0E2FB2EF5
:10EF6000F092C6008091C00086FFFCCF8091C00067
:10EF700080648093C0000DE30093C6008091C000C0
:10EF800086FFFCCF8091C00080648093C00010E2B7
:10EF90001093C6008091C00086FFFCCF8091C00016
:10EFA00080648093C0008BBEF3012791C65DDE4F65
:10EFB0002883CA52D140A22EBB24CC24DD2408943D
:10EFC000611C711C811C911C8BBEF3018791282E42
:10EFD0003324442455240894611C711C811C911C09
:10EFE0008BBEF3013791C55DDE4F3883CB52D140E4
:10EFF0000894611C711C811C911C8BBEF30147910C
:10F00000C45DDE4F4883CC52D140ADEFEA2EAFEF66
:10F01000FA2EAFEF0A2FAFEF1A2F6E0C7F1C801E57
:10F02000911E142D032DF22CEE24EA0CFB1C0C1D5A
:10F030001D1D0F940DF220E22093C6008091C000A8
:10F0400086FFFCCF8091C00080648093C000C65DC5
:10F05000DE4F8881CA52D1400F940DF230E23093D6
:10F06000C6008091C00086FFFCCF8091C000806404
:10F070008093C000C45DDE4F8881CC52D1400F9494
:10F080000DF240E24093C6008091C00086FFFCCFA5
:10F090008091C00080648093C000C55DDE4F888190
:10F0A000CB52D1400F940DF250E25093C6008091A4
:10F0B000C00086FFFCCF8091C00080648093C000B8
:10F0C0008FEFE8168FEFF80680E0080780E018075A
:10F0D00031F484E092EE60E00F94C2F1DFC0D80119
:10F0E000C7018070907CA070B0708050904CA040A0
:10F0F000B040D1F52FEF3FE340E050E0E222F322B1
:10F1000004231523CA5DDE4FA880B980CA80DB8046
:10F11000C652D140AE0CBF1CC01ED11EAA0CBB1CD7
:10F12000CC1CDD1C8EE092EE60E00F94C2F1BB2798
:10F13000A12F902F8F2D0F940DF28E2D0F940DF285
:10F1400030E23093C6008091C00086FFFCCF8091F2
:10F15000C00080648093C0004EE34093C60080915D
:10F16000C00086FFFCCF87C08EE09EEFA0E0B0E03D
:10F17000E822F9220A231B239CE0E91694E9F90608
:10F1800090E0090790E0190709F088C0C45DDE4FE0
:10F19000A881CC52D140EA2EFF2400E010E0102FCD
:10F1A0000F2DFE2CEE24C55DDE4FB881CB52D14031
:10F1B000EB0EF11C011D111DD601C501817090706F
:10F1C000A070B070DC0199278827E80EF91E0A1F8D
:10F1D0001B1F20EF30E040E050E0A222B322C42207
:10F1E000D52241E1AA0CBB1CCC1CDD1C4A95D1F7F1
:10F1F000EA0CFB1C0C1D1D1D81E090E0A0E0B0E0BE
:10F20000282239224A225B2235E1220C331C441C7D
:10F21000551C3A95D1F7E20CF31C041D151D57013E
:10F220006801AA0CBB1CCC1CDD1C85E192EE60E0E1
:10F230000F94C2F1C801AA27BB270F940DF2BB2778
:10F24000A12F902F8F2D0F940DF28E2D0F940DF274
:10F2500090E29093C6008091C00086FFFCCF809121
:10F26000C00080648093C000AEE3A093C60080918C
:10F27000C00086FFFCCF8091C00080648093C000F6
:10F28000C601AA27BB270F940DF2BB27AD2D9C2DDD
:10F290008B2D0F940DF28A2D0F940DF20F94DCF14B
:10F2A000CC5DDE4FE881F981C452D140F99709F471
:10F2B0004DCBF4E0EF2EF12C012D112D6E0C7F1CA7
:10F2C000801E911EF2CD83E093EE62E00F94F5F183
:10F2D0008AE192EE60E00F94C2F18091C00087FF56
:10F2E000FCCF1091C6001F751093C6008091C0001E
:10F2F00086FFFCCF8091C00080648093C0000F9493
:10F30000DCF1812F81548A3108F036C1163409F4BA
:10F3100095C0173490F4133409F44EC0143430F40B
:10F320001134F1F0123409F01DC130C0143409F465
:10F3300059C0153409F016C16BC01A3409F4C4C0A1
:10F340001B3438F4173409F48FC0183409F00AC19B
:10F35000A1C01B3409F4D2C01C3409F003C1E8C0B9
:10F360008FEF81B90DC082B1809582B980E090E0C5
:10F37000E0EDF7E03197F1F70196883C9105C1F790
:10F380008091C00087FFEFCF12B8EFC08FEF84B934
:10F390000DC085B1809585B980E090E0E0EDF7E0A3
:10F3A0003197F1F70196883C9105C1F78091C00033
:10F3B00087FFEFCF15B8D9C08FEF87B90DC088B1DF
:10F3C000809588B980E090E0E0EDF7E03197F1F7C3
:10F3D0000196883C9105C1F78091C00087FFEFCF6F
:10F3E00018B8C3C08FEF8AB90DC08BB180958BB9A7
:10F3F00080E090E0E0EDF7E03197F1F70196883C8E
:10F400009105C1F78091C00087FFEFCF1BB8ADC059
:10F410008FEF8DB90DC08EB180958EB980E090E0F0
:10F42000E0EDF7E03197F1F70196883C9105C1F7DF
:10F430008091C00087FFEFCF1EB897C08FEF80BBD1
:10F440000DC081B3809581BB80E090E0E0EDF7E0F6
:10F450003197F1F70196883C9105C1F78091C00082
:10F4600087FFEFCF11BA81C08FEF83BB0DC084B38C
:10F47000809584BB80E090E0E0EDF7E03197F1F714
:10F480000196883C9105C1F78091C00087FFEFCFBE
:10F4900014BA6BC08FEF809301010FC080910201FD
:10F4A00080958093020180E090E0E0EDF7E03197F5
:10F4B000F1F70196883C9105C1F78091C00087FF64
:10F4C000EDCF1092020151C08FEF809304010FC065
:10F4D0008091050180958093050180E090E0E0ED4A
:10F4E000F7E03197F1F70196883C9105C1F78091DB
:10F4F000C00087FFEDCF1092050137C08FEF8093DA
:10F5000007010FC08091080180958093080180E079
:10F5100090E0E0EDF7E03197F1F70196883C910536
:10F52000C1F78091C00087FFEDCF109208011DC088
:10F530008FEF80930A010FC080910B01809580931B
:10F540000B0180E090E0E0EDF7E03197F1F70196F4
:10F55000883C9105C1F78091C00087FFEDCF1092E4
:10F560000B0103C085E292EEEEC98091C00087FFD7
:10F57000FCCF8091C600EAC988E392EEE4C98CE131
:10F5800091EEE1C988249924933011F1943028F444
:10F59000913089F09230B8F408C0953061F195301F
:10F5A000F0F0963009F048C043C02B3109F042C951
:10F5B00091E06BE13FC96227C15DDE4F2883CF52E6
:10F5C000D14092E037C9B22FA0E0622793E032C960
:10F5D000822F90E0A82BB92B622794E02BC92E3004
:10F5E00009F039C3622795E0C05DDE4F19821882A9
:10F5F000C053D1401FC9E1E0F0E0EC0FFD1FC05D3A
:10F60000DE4F08811981C053D140E00FF11F2083E4
:10F610000F5F1F4FC05DDE4F19830883C053D14079
:10F6200062270A171B0709F005C9D80196E002C92D
:10F63000261709F010C303C0973009F0FBC87724E0
:10F640009981933109F412C19431C8F4963009F4C8
:10F65000D8C0973050F4923009F406C1933009F4C1
:10F660006DC0913009F059C253C0913109F477C08F
:10F67000923108F0BBC0903109F04FC2F5C098310B
:10F6800009F487C0993150F4953109F4EFC09531F0
:10F6900008F4C6C1963109F040C2C2C19A3109F4DA
:10F6A0006CC09A3108F491C09B3109F45BC09D3164
:10F6B00009F033C29D81903359F48F81882311F46E
:10F6C0009EE11CC0813011F091E018C098E916C08D
:10F6D000892F807591F0903539F4E0E0F0E089E011
:10F6E0008093570094910AC0983539F4E3E0F0E034
:10F6F00089E080935700949101C090E01A821B82A8
:10F700008D818C831D829E831F8227E030E009C299
:10F710001A8288E08B8381E48C8386E58D8382E581
:10F720008E8389E48F8383E5888780E589878FE5E9
:10F730008A8782E38B872BE030E0F3C18A818139AD
:10F7400041F0823941F0803911F48FE005C080E04A
:10F7500003C082E001C08AE01A828B8344C0772410
:10F76000739482C08D81882311F48EE12CC0813086
:10F7700011F081E028C088E926C01A82E1E0F0E0BB
:10F7800089E08093570084918B831C8224E030E0D1
:10F79000C8C18B81803589F48C81883039F4E2E0EE
:10F7A000F0E089E08093570084910DC0E0E0F0E044
:10F7B00089E080935700849106C0E3E0F0E089E09F
:10F7C0008093570084911A82DFCF8D81836C99E0FA
:10F7D000E1E0F0E0082E90935700E89507B600FCB2
:10F7E000FDCF1A821B8223E030E09BC180EC8A832C
:10F7F000CE5CDE4F188219821A821B82C253D1401E
:10F800008EC18A8190E0A0E0B0E0582F44273327D2
:10F8100022278B8190E0A0E0B0E0DC0199278827C7
:10F82000282B392B4A2B5B2B8D8190E0A0E0B0E098
:10F83000282B392B4A2B5B2B8C8190E0A0E0B0E089
:10F84000BA2FA92F982F8827282B392B4A2B5B2BCF
:10F85000220F331F441F551FC05EDE4F288339839C
:10F860004A835B83C052D1401A8259C13A81C95C34
:10F87000DE4F3883C753D140CA5CDE4F1882C6536F
:10F88000D1408B81C82EDD24CA5CDE4F488159816E
:10F89000C653D140C42AD52A933109F082C0CE5C28
:10F8A000DE4F88819981AA81BB81C253D1408050AB
:10F8B000904CA340B04030F583E0CE5CDE4FE88052
:10F8C000F9800A811B81C253D140F70100935B008C
:10F8D00080935700E89507B600FCFDCFCE5CDE4F65
:10F8E000088119812A813B81C253D14000501F4FAA
:10F8F0002F4F3F4FCE5CDE4F088319832A833B8313
:10F90000C253D140C05EDE4F488159816A817B81FC
:10F91000C052D140DE011B9631E08C9111962C91A2
:10F9200011971296C75CDE4F2883C953D140C85C3B
:10F93000DE4F1882C853D14090E0C85CDE4FE881AA
:10F94000F981C853D1408E2B9F2B0C01FA01609393
:10F950005B0030935700E89511244E5F5F4F6F4F67
:10F960007F4F0EEFE02E0FEFF02ECE0CDF1CC114F8
:10F97000D10499F685E0C05EDE4F088119812A81A5
:10F980003B81C052D140F80120935B008093570027
:10F99000E89507B600FCFDCF81E180935700E8951C
:10F9A00035C0C05EDE4F88819981AA81BB81C0527B
:10F9B000D140B695A795979587957C018601ABE0D8
:10F9C000AA2EB12CAC0EBD1E0BC0D5016D915D01F0
:10F9D000C7010F947FFE0894E11CF11C01501040F8
:10F9E0000115110591F7A60160E070E0440F551F65
:10F9F000661F771FC05EDE4FE880F9800A811B8199
:10FA0000C052D1404E0D5F1D601F711F1A82C05E33
:10FA1000DE4F488359836A837B83C052D1407FC0C5
:10FA2000FA80C55CDE4FF882CB53D140C65CDE4F16
:10FA30001882CA53D1408B81C82EDD24C65CDE4FAC
:10FA400008811981CA53D140C02AD12A1A828981DA
:10FA5000BE016D5F7F4F843121F59601C05EDE4FA0
:10FA6000E880F9800A811B81C052D1400BBFF701A9
:10FA700087919691DB018C9311969C936E5F7F4FDB
:10FA8000D801C7010296A11DB11DC05EDE4F88835B
:10FA90009983AA83BB83C052D14022503040F1F6F3
:10FAA00036C0C05EDE4F288139814A815B81C052F9
:10FAB000D1400894C108D108760100E010E0089414
:10FAC000C11CD11C0894E11CF11C011D111DE20E8A
:10FAD000F31E041F151F21BDBB27A52F942F832FB5
:10FAE00082BD2F5F3F4F4F4F5F4FF89A80B5DB01CC
:10FAF0008D93BD012E153F054007510761F7C05E8C
:10FB0000DE4F288339834A835B83C052D1409601FC
:10FB10002D5F3F4FFB01108204C080EC8A8322E0FE
:10FB200030E08BE18093C6008091C00086FFFCCF5F
:10FB30008091C00080648093C000C15DDE4FF88179
:10FB4000CF52D140F093C6008091C00086FFFCCF19
:10FB50008091C00080648093C000432F3093C60022
:10FB60008091C00086FFFCCF8091C00080648093AC
:10FB7000C000922F2093C6008091C00086FFFCCF6A
:10FB80008091C00080648093C0008EE08093C600A6
:10FB90008091C00086FFFCCF8091C000806480937C
:10FBA000C00065E1C15DDE4FE880CF52D1406E25D7
:10FBB00069276427FE01319610C090819093C6009A
:10FBC0008091C00086FFFCCF31968091C000806498
:10FBD0008093C0006927215030402115310569F715
:10FBE0006093C6008091C00086FFFCCF8091C0006A
:10FBF00080648093C00085B1805885B9772081F4F6
:10FC0000C15DDE4F0881CF52D1400F5FC15DDE4F35
:10FC10000883CF52D14090E0A0E0B0E00D941AF4F8
:10FC200027982F9880E090E020ED37E0F901319798
:10FC3000F1F7019684369105C9F700008091C00064
:10FC40008D7F8093C00081E180935700E895EE2777
:10FC5000FF270994FFCF90E00D941AF497FB092E2B
:10FC600007260AD077FD04D02ED006D000201AF443
:10FC7000709561957F4F0895F6F7909581959F4F08
:10FC80000895A1E21A2EAA1BBB1BFD010DC0AA1FDD
:10FC9000BB1FEE1FFF1FA217B307E407F50720F0F5
:10FCA000A21BB30BE40BF50B661F771F881F991F70
:10FCB0001A9469F760957095809590959B01AC01B9
:10FCC000BD01CF010895AA1BBB1B51E107C0AA1FAC
:10FCD000BB1FA617B70710F0A61BB70B881F991FED
:10FCE0005A95A9F780959095BC01CD010895F99991
:10FCF000FECF92BD81BDF89A992780B50895262F31
:10FD0000F999FECF1FBA92BD81BD20BD0FB6F89400
:0EFD1000FA9AF99A0FBE01960895F894FFCF63
:00000001FF
