:100000000C9442010C9473010C9473010C947301D1
:100010000C9473010C9473010C9473010C94730190
:100020000C9473010C9473010C9473010C94730180
:100030000C9473010C9473010C9473010C94730170
:100040000C9473010C9473010C9473010C94730160
:100050000C9473010C9473010C9473010C94680656
:100060000C9473010C9473010C9473010C94730140
:100070000C9473010C9473010C9473010C94730130
:100080000C9473010C9473010C9473010C94730120
:100090000C9473010C9473010C9473010C94B206CC
:1000A0000C9473010C9473010C9473010C94730100
:1000B0000C9473010C9473010C9473010C947301F0
:1000C0000C9473010C9473010C9473010C947301E0
:1000D0000C9473010C9473010C9473010C947301D0
:1000E0000C9473010C9459030C94CA010C94A5014F
:1000F0000C94B2010C949D010C94D8010C94A801AD
:100100000C94E1050C94D6070C9469030C94C60179
:100110000C94BB020C94C6040C94A1010C94B8017D
:100120000C94CE010C9483030C94BC010C94210B11
:100130000C94AE010C94C7040C94C0010C947C0385
:100140000C94D4010C94BC020C9499010C945A03A5
:100150000C94D3010C94B0030C94BD020C94930145
:1001600000002100240027002A002D003000330069
:1001700001010000040107010A010000220025001E
:1001800028002B002E003100340002010000050180
:1001900008010B01000020002300260029002C008C
:1001A0002F003200000100000301060109010505CE
:1001B0000505070508080808020202020A0A0808DD
:1001C000040404040101010101010101030303030B
:1001D00003030303040707070C0C0C0C0C0C0C0C9A
:1001E0000202020206060606060606060B0B0B0BAB
:1001F0000B0B0B0B010210202008081020401020D0
:1002000040800201020108040201010204081020DA
:1002100040808040201008040201800402018040D8
:100220002010080402010804020101020408102041
:100230004080010204081020408000000A0B0209DF
:100240000C0D0E0807030401000000000000000070
:10025000000000000000000000000000000000009E
:10026000000000000000121110000000000000005B
:10027000000000000000000000000000000000007E
:10028000D607210B11241FBECFEFD1E2DEBFCDBFB9
:1002900000E00CBF27E0ACEAB5E001C01D92A9392F
:1002A000B207E1F715E0A0E0B2E0E6E1FBE100E033
:1002B0000BBF02C007900D92AC3AB107D9F711E01D
:1002C000C1E4D1E000E006C021970109802FFE01C2
:1002D0000E94470BC034D10780E00807A9F70E94AD
:1002E000BB080C94790D0C9400008150823108F009
:1002F0005AC0E82FF0E08827EF57FE4F8F4F0C943D
:10030000470BA101A501930199019D01D301A8010A
:10031000AE01B201B801BC01C001C601CA01D301DE
:10032000CE01D401D801809180008F778093800026
:100330000895809180008F7DF9CF80918000877F24
:10034000F5CF84B58F7784BD089584B58F7DFBCFBD
:100350008091B0008F778093B00008958091B000B5
:100360008F7DF9CF809190008F77809390000895D2
:10037000809190008F7DF9CF80919000877FF5CF9D
:100380008091A0008F778093A00008958091A000B5
:100390008F7DF9CF8091A000877FF5CF80912001DC
:1003A0008F77809320010895809120018F7DF9CF70
:1003B00080912001877FF5CFCF93DF93282F30E006
:1003C000F901E65CFD4F8491F901EC50FE4FD491A8
:1003D000F901E255FE4FC491CC23A1F081110E9496
:1003E0007501EC2FF0E0EE0FFF1FEC56FE4FA591CC
:1003F000B491EC91ED2381E090E009F480E0DF918D
:10040000CF91089580E090E0FACF1F93CF93DF93D0
:10041000282F30E0F901E65CFD4F8491F901EC50A2
:10042000FE4FD491F901E255FE4FC491CC23A9F0BF
:10043000162F81110E947501EC2FF0E0EE0FFF1FC7
:10044000E658FE4FA591B4918FB7F894EC91111135
:1004500008C0D095DE23DC938FBFDF91CF911F9131
:100460000895DE2BF8CFCF93DF9390E0FC01EC50A2
:10047000FE4F249182559E4FFC0184918823D1F038
:1004800090E0880F991FFC01E05AFE4FA591B491AE
:10049000FC01E658FE4FC591D49161110EC09FB783
:1004A000F8948C91E22FE0958E238C932881E2239F
:1004B000E8839FBFDF91CF9108958FB7F894EC91B7
:1004C000E22BEC938FBFF6CF3FB7F8948091B30641
:1004D0009091B406A091B506B091B60626B5A89B3A
:1004E00005C02F3F19F00196A11DB11D3FBFBA2FC6
:1004F000A92F982F8827BC01CD01620F711D811D86
:10050000911D42E0660F771F881F991F4A95D1F70A
:1005100008958F929F92AF92BF92CF92DF92EF9207
:10052000FF924B015C010E9464026B017C010E94FE
:1005300064026C197D098E099F09683E734081052C
:100540009105A8F321E0821A9108A108B10888EE6C
:10055000C80E83E0D81EE11CF11C81149104A10493
:10056000B10429F7FF90EF90DF90CF90BF90AF904C
:100570009F908F90089508950895AF92BF92CF9263
:10058000DF92EF92FF920F931F93CF93DF936C0153
:100590007B018B01040F151FEB015E01AE18BF0834
:1005A000C017D10759F06991D601ED91FC910190E6
:1005B000F081E02DC6011995892B79F7C501DF91EE
:1005C000CF911F910F91FF90EF90DF90CF90BF9050
:1005D000AF900895FC01448155816081718189E863
:1005E00097E00C94BD0220911406260F3327331F89
:1005F00021323105ECF420913806FC0190E080E0D6
:10060000243069F082E00895A09114062191AC0194
:100610004C505A4FA40FB52FB11D2C93019686173D
:1006200098F380911406680F6093140680E0089593
:1006300081E008951092380681E080933A06109286
:10064000390661E084E10E94050261E085E10E94D3
:100650000502E9EBF0E080818E7F808380818D7FD1
:10066000808388E48093B80085E48093BC0008957B
:10067000CF93DF9391E09093F3058823B9F0C09175
:10068000B800D091BA008091BC008A7B8093BC00F6
:1006900060E084E10E94050260E085E10E940502BD
:1006A0000E941A03D093BA00C093B800DF91CF9193
:1006B00008950895E091650680916406E81730F486
:1006C000F0E0E253FA4F808190E008958FEF9FEFC2
:1006D000089590916506809164062FEF3FEF98177B
:1006E00048F4E92FF0E0E253FA4F208130E09F5FB9
:1006F00090936506C90108958091640690916506FE
:10070000891B990B0895CF92DF92EF92FF920F937E
:100710001F93CF93DF937C01CB018A012091CD05FC
:10072000222389F0EB016B01C40ED51ECC15DD052B
:1007300069F06991D701ED91FC910190F081E02D74
:10074000C7011995F3CF642F0E94F302C801DF910E
:10075000CF911F910F91FF90EF90DF90CF90089570
:10076000CF93DF931F92CDB7DEB769832091CD057C
:100770002223F9F020916206203258F021E030E087
:10078000FC013383228390E080E00F90DF91CF91D2
:10079000089580916306E82FF0E0E355FA4F9981C0
:1007A00090838F5F809363068093620681E090E080
:1007B000ECCF61E0CE0101960E94F302F7CFCF9219
:1007C000DF92EF92FF920F931F93CF93DF93FC0181
:1007D000C48121E02093CD05C093AC05109263063F
:1007E000109262068385682B87EB96E00E94B00327
:1007F000D0916206D13208F092C00E9464026B016F
:100800007C0180913806811165C082E080933806B2
:1008100081E080933A068FEF8093370610925C0652
:10082000D0935B06ADEAB5E0EBE3F6E080E0D813E9
:1008300085C010925D0680915D06CC0FC82BC093D9
:100840005D0680913906813009F07CC0109239062E
:100850000E9464026B017C0180915D068093BB0065
:100860008091EF059091F005A091F105B091F2050E
:10087000892B8A2B8B2B99F00E9464020091EF0543
:100880001091F0052091F1053091F2056C197D0968
:100890008E099F090617170728073907E0F180918D
:1008A000BC0083FDD9CF85EC8093BC000E9464021C
:1008B0006B017C0180913806823009F445C080913B
:1008C00037068F3F61F180913706803241F1809188
:1008D000370625C08091EF059091F005A091F105B4
:1008E000B091F205892B8A2B8B2B09F48ACF0E94B9
:1008F00064020091EF051091F0052091F10530910F
:10090000F2056C197D098E099F090617170728073C
:10091000390708F076CF8091EE050E9438031092D7
:100920006306109262061092CD05DF91CF911F9160
:100930000F91FF90EF90DF90CF9008959D9191934C
:100940008F5F75CF85EEB0CF8091EF059091F00568
:10095000A091F105B091F205892B8A2B8B2B09F41C
:10096000A9CF0E9464020091EF051091F00520913B
:10097000F1053091F2056C197D098E099F09061762
:1009800017072807390708F095CFC5CF089590E0DD
:1009900080E008958091AA069091AB06181619067A
:1009A00044F488E08093940760E089E897E00C9431
:1009B000DF0310929407F8CFCF93DF931092AB062A
:1009C0001092AA061092AD061092AC06C6E1D0E0D5
:1009D0008C2F0E94DC01892BE9F08091AA0690916E
:1009E000AB0601969093AB068093AA068091AC0665
:1009F0009091AD069C012F5F3F4F3093AD06209341
:100A0000AC06880F991FFC01E859F94FCE014697B3
:100A1000918380832196C433D105D1F686E30E9469
:100A2000DC01892BE9F08091AA069091AB06019632
:100A30009093AB068093AA068091AC069091AD0688
:100A40009C012F5F3F4F3093AD062093AC06880F7B
:100A5000991FFC01E859F94F8EE190E09183808362
:100A600087E30E94DC01892BE9F08091AA0690912E
:100A7000AB0601969093AB068093AA068091AC06D4
:100A80009091AD069C012F5F3F4F3093AD062093B0
:100A9000AC06880F991FFC01E859F94F8FE190E0EF
:100AA0009183808388E30E94DC01892BE9F08091A7
:100AB000AA069091AB0601969093AB068093AA0686
:100AC0008091AC069091AD069C012F5F3F4F309313
:100AD000AD062093AC06880F991FFC01E859F94F29
:100AE00080E290E091838083DF91CF9108950F930E
:100AF0001F93CF938C01C62F0E94DF036C2F64607D
:100B0000C8010E94DF036C2F6B7FC8010E94DF03C6
:100B100083EC90E00197F1F7CF911F910F91089529
:100B20000F931F93CF93DF938C01D62FC42F607F39
:100B3000642B0E94770580E1D89FB00111246C2BB3
:100B4000C801DF91CF911F910F910C947705CF933E
:100B5000DF9300D000D01F921F92CDB7DEB798E090
:100B6000E0E3F2E0DE01119601900D929A95E1F733
:100B700090919107981708F48FEF90E0880F991FD4
:100B800021E030E02C0F3D1F820F931FFC0160819C
:100B9000606840E089E897E028960FB6F894DEBFD9
:100BA0000FBECDBFDF91CF910C94900540E061E086
:100BB00089E897E00E9490058BE39FE10197F1F7A8
:100BC000089541E00E94900581E090E00895EF9241
:100BD000FF920F931F93CF93DF93EC017B01198258
:100BE00018821B821A821D821C82FB010190002048
:100BF000E9F731978F01061B170BB8016F5F7F4F25
:100C000090E080E00E94880C0097B9F09983888377
:100C10001B830A832C813D81232B11F4FC0110825C
:100C20001D830C83B70188819981DF91CF911F913A
:100C30000F91FF90EF900C94720D8881998100972D
:100C400011F00E94FF0B198218821D821C821B82E8
:100C50001A82DF91CF911F910F91FF90EF9008952D
:100C600085ED8093BC008091EF059091F005A091F7
:100C7000F105B091F2050796A11DB11D23E0B695CF
:100C8000A795979587952A95D1F72091BC0024FDCB
:100C900003C01092380608954091EF055091F00579
:100CA0006091F1057091F205452B462B472B69F3B6
:100CB0000097A105B10541F02AE22A95F1F700C09D
:100CC0000197A109B109E1CF8091EE050C94380399
:100CD0001F920F920FB60F9211242F933F938F9371
:100CE0009F93AF93BF938091AF069091B006A09170
:100CF000B106B091B2063091AE0623E0230F2D3736
:100D000058F50196A11DB11D2093AE068093AF0644
:100D10009093B006A093B106B093B2068091B3064B
:100D20009091B406A091B506B091B6060196A11DAA
:100D3000B11D8093B3069093B406A093B506B0930B
:100D4000B606BF91AF919F918F913F912F910F90D8
:100D50000FBE0F901F90189526E8230F0296A11D35
:100D6000B11DD2CF1F920F920FB60F9211240BB666
:100D70000F922F933F934F935F936F937F938F9334
:100D80009F93AF93BF93EF93FF938091B900887FB8
:100D9000803609F44DC008F040C0883209F4A9C07B
:100DA00028F5803109F49DC0C8F4882309F4FBC0FC
:100DB000883009F496C0FF91EF91BF91AF919F9158
:100DC0008F917F916F915F914F913F912F910F90F4
:100DD0000BBE0F900FBE0F901F901895883109F42D
:100DE00088C0803241F78093370614C0803409F4FC
:100DF0009DC040F48033B9F38833E9F68093370619
:100E000085ECB0C0803509F485C0883509F496C0FA
:100E1000883489F60E943006CECF883909F48CC018
:100E200038F5883729F050F4883611F0803719F6F4
:100E300083E0809338061092360657C0883809F44C
:100E40007BC0803919F0803809F0B5CF8091360623
:100E5000803208F071C0E091360681E08E0F8093F9
:100E600036068091BB00F0E0EA5EF94F80833DC01A
:100E7000803B39F0E0F4803A09F479C0883A09F00F
:100E80009ACF84E0809338061092150610921406CB
:100E9000E0916006F0916106199580911406811128
:100EA0000FC081E0809314061092F40509C0803CC5
:100EB00009F4A6CF883C09F4A3CF883B09F07BCF87
:100EC000E091150681E08E0F80931506F0E0EC505E
:100ED000FA4F80818093BB00909115068091140693
:100EE00029C080915D068093BB0085EC8093BC0097
:100EF00062CF90915C0680915B06981758F5E0915F
:100F00005C0681E08E0F80935C06F0E0E55CF94FB3
:100F10008081E9CFE0915C0681E08E0F80935C06D2
:100F20008091BB00F0E0E55CF94F808390915C0616
:100F300080915B069817C8F285E8D8CFE0915C06EF
:100F400081E08E0F80935C068091BB00F0E0E55C51
:100F5000F94F808380913A0681115CCF81E08093C4
:100F6000390684EA8093BC001092380624CF85ECC1
:100F70008093BC001092380680913606803230F49F
:100F8000E0913606F0E0EA5EF94F10826091360695
:100F900070E0E0915E06F0915F0686E196E01995BB
:100FA0001092360608CF1092370634CFE7EBF6E002
:100FB0001382128288EE93E0A0E0B0E084839583F0
:100FC000A683B7838CE392E091838083E9E8F7E01E
:100FD000138212828EE492E09183808387E284837D
:100FE00088E2818782E08287138666E572E083EC7F
:100FF00096E00E94E70561E672E089EC96E00E94C7
:10100000E70561E772E08FEC96E00E94E7056AE78A
:1010100072E085ED96E00E94E7056FE972E08BEDE6
:1010200096E00E94E70567EC72E081EE96E00E9490
:10103000E7056CEE72E087EE96E00E94E70560E15E
:1010400073E08DEE96E00E94E70563E273E083EFC4
:1010500096E00E94E70569E373E089EF96E00E945D
:10106000E7056FE473E08FEF96E00E94E70568E61E
:1010700073E085E097E00E94E70560E873E08BE0AD
:1010800097E00E94E7056EE973E081E197E00E9436
:10109000E7056FEB73E087E197E00E94E7056FEDEE
:1010A00073E08DE197E00E94E70560EF73E083E273
:1010B00097E00E94E70560E174E089E297E00E9412
:1010C000E70567E374E08FE297E00E94E7056DE5CE
:1010D00074E085E397E00E94E7056CE774E08BE33A
:1010E00097E00E94E70563E974E081E497E00E94DD
:1010F000E7056CE774E087E497E00E94E7056BEA98
:1011000074E08DE497E00E94E70560EC74E083E50D
:1011100097E00E94E7056EED74E089E597E00E9494
:10112000E7056EEF74E08FE597E00E94E7056AE15E
:1011300075E085E697E00E94E70567E375E08BE6DA
:1011400097E00E94E70562E575E081E797E00E947D
:10115000E70563E675E087E797E00E94E70562E848
:1011600075E08DE797E00E94E70565E975E083E8A3
:1011700097E00C94E705789484B5826084BD84B5CB
:10118000816084BD85B5826085BD85B5816085BD82
:1011900080916E00816080936E001092810080913A
:1011A00081008260809381008091810081608093C2
:1011B0008100809180008160809380008091B100E7
:1011C00084608093B1008091B00081608093B00012
:1011D0008091910082608093910080919100816064
:1011E0008093910080919000816080939000809125
:1011F000A10082608093A1008091A1008160809312
:10120000A1008091A00081608093A00080912101C5
:10121000826080932101809121018160809321016E
:101220008091200181608093200180917A00846008
:1012300080937A0080917A00826080937A00809116
:101240007A00816080937A0080917A008068809330
:101250007A001092C10010926506109264061092F6
:101260006306109262060E941A038BEB92E0909341
:101270006106809360068CEB92E090935F0680930A
:101280005E0610928E0780919307823018F098E0E6
:1012900090938E078093910762E370E080E090E086
:1012A0000E9489026091940789E897E00E94DF0319
:1012B00068EE73E080E090E00E94890260E389E8D4
:1012C00097E00E947705CBE4D6E4CE010197F1F7D1
:1012D00060E389E897E00E9477052197F1F760E3E2
:1012E00089E897E00E94770583E592E00197F1F79E
:1012F00060E289E897E00E94770560918E0760625E
:1013000040E089E897E00E94900584E080938F0791
:1013100040E06CE089E897E00E9490050E94D605C5
:1013200082E08093900740E066E089E897E00E94C1
:10133000900540E062E089E897E00E9490058BE329
:101340009FE10197F1F70E94D60588E0809394070A
:1013500060E089E897E00E94DF03C6E160E08C2F3F
:101360000E943302CF5FC433C9F760E086E30E9476
:10137000330260E087E30E94330260E088E30E946A
:10138000330261E085E30E94330260E084E30E945F
:10139000330240E0C42E42E0D42E0AE010E055E1D2
:1013A000852E52E0952E66E0762E70E0E72E70E0F6
:1013B000F72EE0E26E2EAA24A394B12CD0E0C0E078
:1013C00084E30E94DC01892B09F040C00E94DC0408
:1013D0000E94CA0480E00E94A705F6010190002047
:1013E000E9F7AF014150524060E072E089E897E0D0
:1013F0000E94BD0261E085E3CA30D1059CF00E94E5
:10140000050260ED77E080E090E00E94890260E0F4
:1014100085E30E94050260ED77E080E090E00E94A5
:101420008902CECF0E94050264E670E080E090E081
:101430000E94890260E085E30E94050264E670E094
:1014400080E090E00E9489022196BACF0E94DC04DD
:10145000C091AA06D091AB0680916606909167066E
:101460008C179D0774F461E085E30E94050264EF28
:1014700071E080E090E00E94890260E085E30E94D4
:101480000502D0936706C0936606CA30D1050CF4F6
:101490004EC0CE01B8010E94330B605D60932702FD
:1014A000CE01B8010E94330B805D8093280280E05A
:1014B0000E94A705F40101900020E9F7AF01465111
:1014C000524065E172E089E897E00E94BD020E9407
:1014D000CA041092AD061092AC06C091AA06D09133
:1014E000AB06C130D10531F581E00E94A705D0934C
:1014F000AD06C093AC062091680630916906729ED5
:10150000C001739E900D11248D53994F0E94EA02E1
:1015100060ED77E080E090E00E9489020E94D605AD
:10152000E114F10409F44ACF0E94000047CF609211
:101530002702B6CF2297A4F381E00E94A705B092BC
:10154000AD06A092AC062091680630916906729EA5
:10155000C001739E900D11248D53994F0E94EA0291
:1015600060ED77E080E090E00E9489020E94D6055D
:101570008091AA069091AB0601979093AB06809359
:10158000AA068091AA069091AB061816190644F691
:1015900080E00E94A7058091AC069091AD069C0169
:1015A0002F5F3F4F3093AD062093AC06880F991FF5
:1015B000FC01E859F94F20813181729EC001739E70
:1015C000900D11248D53994F0E94EA028091AA0632
:1015D0009091AB0601979093AB068093AA06892B56
:1015E00039F181E00E94A7058091AC069091AD068B
:1015F0009C012F5F3F4F3093AD062093AC06880FC0
:10160000991FFC01E859F94F20813181729EC00178
:10161000739E900D11248D53994F0E94EA02809180
:10162000AA069091AB0601979093AB068093AA0609
:1016300060ED77E080E090E00E9489020E94D6058C
:10164000A0CFCF93DF93C9E8D7E02697888199810F
:10165000009711F00E94FF0B86E0C33CD807A9F762
:10166000DF91CF91089597FB072E16F4009407D0D1
:1016700077FD09D00E944F0B07FC05D03EF49095F2
:1016800081959F4F0895709561957F4F0895EE0F56
:10169000FF1F881F8BBF0790F691E02D1994AA1B9E
:1016A000BB1B51E107C0AA1FBB1FA617B70710F04D
:1016B000A61BB70B881F991F5A95A9F7809590957F
:1016C000BC01CD0108950F931F93CF93DF93823018
:1016D000910510F482E090E0E0919707F09198076F
:1016E00030E020E0B0E0A0E0309799F4211531051A
:1016F00009F44AC0281B390B24303105D8F58A81FA
:101700009B816115710589F1FB0193838283FE0141
:1017100011C0408151810281138148175907E0F0BF
:101720004817590799F4109761F012960C93129785
:1017300013961C933296CF01DF91CF911F910F9199
:1017400008950093970710939807F4CF211531055A
:1017500051F04217530738F0A901DB019A01BD018E
:10176000DF01F801C1CFEF01F9CF90939807809383
:101770009707CDCFFE01E20FF31F81939193225083
:10178000310939832883D7CF209195073091960767
:10179000232B41F420912C0230912D023093960797
:1017A0002093950720912A0230912B0221153105B3
:1017B00041F42DB73EB740912E0250912F02241BC9
:1017C000350BE0919507F0919607E217F307A0F427
:1017D0002E1B3F0B2817390778F0AC014E5F5F4F87
:1017E0002417350748F04E0F5F1F5093960740931C
:1017F0009507819391939FCFF0E0E0E09CCFCF934A
:10180000DF930097E9F0FC01329713821282A091D6
:101810009707B0919807ED0130E020E01097A1F410
:1018200020813181820F931F209195073091960777
:101830002817390709F061C0F0939607E0939507E0
:10184000DF91CF910895EA01CE17DF07E8F54A81CD
:101850005B819E0141155105B1F7E901FB83EA83E4
:1018600049915991C40FD51FEC17FD0761F4808190
:1018700091810296840F951FE90199838883828163
:1018800093819B838A83F0E0E0E012968D919C9196
:1018900013970097B9F52D913C911197CD010296C0
:1018A000820F931F209195073091960728173907CB
:1018B00039F6309751F51092980710929707B09328
:1018C0009607A0939507BCCFD383C28340815181F3
:1018D000840F951FC817D90761F44E5F5F4F888149
:1018E0009981480F591F518340838A819B8193833B
:1018F00082832115310509F0B0CFF0939807E0936A
:1019000097079ECFFD01DC01C0CF13821282D7CF93
:101910004F925F926F927F928F929F92AF92BF92FF
:10192000CF92DF92EF92FF920F931F93CF93DF93AB
:101930008C01009799F4CB01DF91CF911F910F910A
:10194000FF90EF90DF90CF90BF90AF909F908F90DF
:101950007F906F905F904F900C94630BFC01E60FAB
:10196000F71F9C0122503109E217F30708F4AEC0BB
:10197000D901CD91DC911197C617D70720F1C53059
:10198000D10578F0CE0104978617970750F0C61B53
:10199000D70B2297C193D1936D937C93CF010E9473
:1019A000FF0BC801DF91CF911F910F91FF90EF9036
:1019B000DF90CF90BF90AF909F908F907F906F906F
:1019C0005F904F9008955B01AC1ABD0A4C018C0EDC
:1019D0009D1EA0919707B0919807512C412CF12C96
:1019E000E12C109731F58091950790919607881515
:1019F000990509F05CC04616570608F058C080915A
:101A00002A0290912B02009741F48DB79EB7409126
:101A10002E0250912F02841B950BE817F90708F04E
:101A200055C0F0939607E0939507F90171836083A1
:101A3000B8CF8D919C91119712966C901297139636
:101A40007C901397A815B90559F56C0142E0C40EB6
:101A5000D11CCA14DB0420F1AC014A195B09DA017C
:101A60001296159780F06282738251834083D90168
:101A70006D937C93E114F10471F0D7011396FC93FC
:101A8000EE9312978ECF22968C0F9D1FF9019183B2
:101A90008083F301EFCFF0939807E093970781CF0E
:101AA0004816590608F42C017D01D3019ACFCB01C9
:101AB0000E94630B7C01009749F0AE01B8010E94BF
:101AC000690DC8010E94FF0B87016BCF10E000E099
:101AD00068CFFB01DC0102C001900D9241505040E3
:101AE000D8F70895FB01DC0101900D920020E1F789
:101AF000089511E0C1E4D1E000E006C0802FFE01AE
:101B00000E94470B2196011DC234D10780E00807CF
:061B1000A9F7F894FFCFD5
:101B16002020202049474E4954494F4E204F4E2001
:101B260020202020004F70656E20446F6F72732056
:101B3600436F756E743D20202000000099078000D9
:101B4600000040001400540000000000B0038303AE
:101B5600C70459037C0369035A0300000000E1052A
:101B6600BD02C704C604456E74727920446F6F7255
:101B7600004D6F746F72686F6D6520536C69646594
:101B860000536B796C6967687400536B796C69678D
:101B96006874204F70617175652053637265656E58
:101BA600206E6F74205265747261637465640053AD
:101BB6006B796C6967687420496E7365637420532A
:101BC600637265656E206973206E6F74205265744A
:101BD600726163746564005269676874204B697446
:101BE6006368656E204F766572686561642043752B
:101BF60070626F61726420446F6F72004C65667428
:101C0600204B69746368656E204F766572686561FE
:101C16006420437570626F61726420446F6F720056
:101C2600546F70204B69746368656E2044726177E7
:101C36006572004D6964646C65204B697463686500
:101C46006E2044726177657200426F74746F6D2006
:101C56004B69746368656E204472617765720055DE
:101C66006E6465722D53696E6B20437570626F6189
:101C7600726420446F6F720057696E6520536C69F9
:101C8600646520436162696E657420446F6F7200FB
:101C96005574696C69747920556E64657220426565
:101CA6006E636820466C61702D446F6F72005269D6
:101CB600676874205574696C69747920556E64651B
:101CC600722D42656E636820447261776572004CBE
:101CD600656674205574696C69747920556E6465FF
:101CE600722D42656E6368204472617765720049A1
:101CF6005420437570626F61726420446F6F720086
:101D0600526967687420466C6F6F722D4C657665F4
:101D16006C20437570626F61726420446F6F72004D
:101D260052696768742D43656E74726520466C6FE0
:101D36006F722D4C6576656C20437570626F6172AB
:101D46006420446F6F72004C6566742D43656E7433
:101D5600726520466C6F6F722D4C6576656C2043FC
:101D66007570626F61726420446F6F72004C6566B5
:101D76007420466C6F6F722D4C6576656C204375CA
:101D860070626F61726420446F6F72005269676897
:101D96007420466C6F6F722D4C6576656C204472AC
:101DA6006177004D6964646C6520466C6F6F722DB7
:101DB6004C6576656C204472617700426174687286
:101DC6006F6F6D20536964696E6720446F6F720090
:101DD600526967687420556E6465722D56616E6926
:101DE600747920446F6F72202848575329004C6538
:101DF60066742042617468726F6F6D20556E6465FB
:101E0600722D56616E69747920446F6F7200526943
:101E1600676874204F7665722D48656164204C6F43
:101E2600636B657220446F6F720043656E747265F2
:101E3600204F7665722D48656164204C6F636B6533
:101E46007220446F6F72004C656674204F7665721F
:101E56002D48656164204C6F636B657220446F6F1B
:101E6600720042617468726F6F6D732057696E6499
:101E76006F770053686F726520506F7765722069BF
:101E860073207374696C6C20636F6E6E6563746522
:101E960064004472697665722D53696465204C6FDF
:101EA600636B65720050617373656E6765722D535F
:0C1EB600696465204C6F636B657200006E
:00000001FF
