:100000000C9442010C9473010C9473010C947301D1
:100010000C9473010C9473010C9473010C94730190
:100020000C9473010C9473010C9473010C94730180
:100030000C9473010C9473010C9473010C94730170
:100040000C9473010C9473010C9473010C94730160
:100050000C9473010C9473010C9473010C94280696
:100060000C9473010C9473010C9473010C94730140
:100070000C9473010C9473010C9473010C94730130
:100080000C9473010C9473010C9473010C94730120
:100090000C9473010C9473010C9473010C9472060C
:1000A0000C9473010C9473010C9473010C94730100
:1000B0000C9473010C9473010C9473010C947301F0
:1000C0000C9473010C9473010C9473010C947301E0
:1000D0000C9473010C9473010C9473010C947301D0
:1000E0000C9473010C94A1010C9493010C947A0369
:1000F0000C949D010C94AE030C94D3010C94C50494
:100100000C9457030C9496070C9467030C940F0CF3
:100110000C94A8010C94A5010C94B2010C94C60196
:100120000C94D4010C9456030C94D8010C949901AE
:100130000C94C0010C94BC010C9481030C94B80184
:100140000C942E050C9455030C94C4040C94CA0111
:100150000C9458030C94CE010C94BB020C94AE0189
:1001600000002100240027002A002D003000330069
:1001700001010000040107010A010000220025001E
:1001800028002B002E003100340002010000050180
:1001900008010B01000020002300260029002C008C
:1001A0002F003200000100000301060109010505CE
:1001B0000505070508080808020202020A0A0808DD
:1001C000040404040101010101010101030303030B
:1001D00003030303040707070C0C0C0C0C0C0C0C9A
:1001E0000202020206060606060606060B0B0B0BAB
:1001F0000B0B0B0B010210202008081020401020D0
:1002000040800201020108040201010204081020DA
:1002100040808040201008040201800402018040D8
:100220002010080402010804020101020408102041
:100230004080010204081020408000000A0B0209DF
:100240000C0D0E0807030401000000000000000070
:10025000000000000000000000000000000000009E
:10026000000000000000121110000000000000005B
:10027000000000000000000000000000000000007E
:1002800096070F0C11241FBECFEFD1E2DEBFCDBF0A
:1002900000E00CBF27E0ACEAB5E001C01D92A53A32
:1002A000B207E1F715E0A0E0B2E0E2EFFCE100E028
:1002B0000BBF02C007900D92AC3AB107D9F711E01D
:1002C000C1E4D1E000E006C021970109802FFE01C2
:1002D0000E94350CC034D10780E00807A9F70E94BE
:1002E00086080C94670E0C9400008150823108F04F
:1002F0005AC0E82FF0E08827EF57FE4F8F4F0C943D
:10030000350CA101A501930199019D01D301A8011B
:10031000AE01B201B801BC01C001C601CA01D301DE
:10032000CE01D401D801809180008F778093800026
:100330000895809180008F7DF9CF80918000877F24
:10034000F5CF84B58F7784BD089584B58F7DFBCFBD
:100350008091B0008F778093B00008958091B000B5
:100360008F7DF9CF809190008F77809390000895D2
:10037000809190008F7DF9CF80919000877FF5CF9D
:100380008091A0008F778093A00008958091A000B5
:100390008F7DF9CF8091A000877FF5CF80912001DC
:1003A0008F77809320010895809120018F7DF9CF70
:1003B00080912001877FF5CFCF93DF93282F30E006
:1003C000F901E65CFD4F8491F901EC50FE4FD491A8
:1003D000F901E255FE4FC491CC23A1F081110E9496
:1003E0007501EC2FF0E0EE0FFF1FEC56FE4FA591CC
:1003F000B491EC91ED2381E090E009F480E0DF918D
:10040000CF91089580E090E0FACF1F93CF93DF93D0
:10041000282F30E0F901E65CFD4F8491F901EC50A2
:10042000FE4FD491F901E255FE4FC491CC23A9F0BF
:10043000162F81110E947501EC2FF0E0EE0FFF1FC7
:10044000E658FE4FA591B4918FB7F894EC91111135
:1004500008C0D095DE23DC938FBFDF91CF911F9131
:100460000895DE2BF8CFCF93DF9390E0FC01EC50A2
:10047000FE4F249182559E4FFC0184918823D1F038
:1004800090E0880F991FFC01E05AFE4FA591B491AE
:10049000FC01E658FE4FC591D49161110EC09FB783
:1004A000F8948C91E22FE0958E238C932881E2239F
:1004B000E8839FBFDF91CF9108958FB7F894EC91B7
:1004C000E22BEC938FBFF6CF3FB7F8948091B30641
:1004D0009091B406A091B506B091B60626B5A89B3A
:1004E00005C02F3F19F00196A11DB11D3FBFBA2FC6
:1004F000A92F982F8827BC01CD01620F711D811D86
:10050000911D42E0660F771F881F991F4A95D1F70A
:1005100008958F929F92AF92BF92CF92DF92EF9207
:10052000FF924B015C010E9464026B017C010E94FE
:1005300064026C197D098E099F09683E734081052C
:100540009105A8F321E0821A9108A108B10888EE6C
:10055000C80E83E0D81EE11CF11C81149104A10493
:10056000B10429F7FF90EF90DF90CF90BF90AF904C
:100570009F908F900895AF92BF92CF92DF92EF92AB
:10058000FF920F931F93CF93DF936C017B018B013D
:10059000040F151FEB015E01AE18BF08C017D1078D
:1005A00059F06991D601ED91FC910190F081E02D17
:1005B000C6011995892B79F7C501DF91CF911F915C
:1005C0000F91FF90EF90DF90CF90BF90AF90089584
:1005D000FB0144815581608171810C94BB022091A3
:1005E0001A06260F3327331F21323105ECF42091F0
:1005F0004006FC0190E080E0243069F082E008953C
:10060000A0911A062191AC0148505A4FA40FB52F62
:10061000B11D2C930196861798F380911A06680FE6
:1006200060931A0680E0089581E0089510924006D4
:1006300081E0809342061092410661E084E10E94CD
:10064000050261E085E10E940502E9EBF0E08081AE
:100650008E7F808380818D7F808388E48093B80043
:1006600085E48093BC000895CF93DF9391E090934D
:10067000F7058823B9F0C091B800D091BA008091F5
:10068000BC008A7B8093BC0060E084E10E9405028C
:1006900060E085E10E9405020E941603D093BA0033
:1006A000C093B800DF91CF910895089508950895FB
:1006B000E091EF058091EE05E81730F4F0E0E253A9
:1006C000FA4F808190E008958FEF9FEF0895909109
:1006D000EF058091EE052FEF3FEF981748F4E92FD3
:1006E000F0E0E253FA4F208130E09F5F9093EF05F6
:1006F000C90108958091EE059091EF05891B990B32
:100700000895CF92DF92EF92FF920F931F93CF93B2
:10071000DF937C01CB018A012091CD05222389F052
:10072000EB016B01C40ED51ECC15DD0569F0699196
:10073000D701ED91FC910190F081E02DC701199551
:10074000F3CF642F0E94EF02C801DF91CF911F9178
:100750000F91FF90EF90DF90CF900895CF93DF93AC
:100760001F92CDB7DEB769832091CD052223F9F022
:100770002091F005203258F021E030E0FC01338375
:10078000228390E080E00F90DF91CF9108958091D7
:10079000F105E82FF0E0E355FA4F998190838F5FE0
:1007A0008093F1058093F00581E090E0ECCF61E06B
:1007B000CE0101960E94EF02F7CFCF92DF92EF9227
:1007C000FF920F931F93CF93DF93FC01C48121E02D
:1007D0002093CD05C093AC051092F1051092F00561
:1007E0008385682B87EB96E00E94AE03D091F005DD
:1007F000D13208F092C00E9464026B017C018091AA
:100800004006811165C082E08093400681E08093BC
:1008100042068FEF80933F0610926406D0936306E2
:10082000ADEAB5E0E3E4F6E080E0D81385C01092CD
:10083000650680916506CC0FC82BC0936506809134
:100840004106813009F07CC0109241060E9464028A
:100850006B017C01809165068093BB008091F3055C
:100860009091F405A091F505B091F605892B8A2B9E
:100870008B2B99F00E9464020091F3051091F4050E
:100880002091F5053091F6056C197D098E099F09B7
:100890000617170728073907E0F18091BC0083FD90
:1008A000D9CF85EC8093BC000E9464026B017C016F
:1008B00080914006823009F445C080913F068F3F09
:1008C00061F180913F06803241F180913F0625C061
:1008D0008091F3059091F405A091F505B091F6058E
:1008E000892B8A2B8B2B09F48ACF0E9464020091FA
:1008F000F3051091F4052091F5053091F6056C197A
:100900007D098E099F09061717072807390708F080
:1009100076CF8091F2050E9434031092F105109277
:10092000F0051092CD05DF91CF911F910F91FF90AF
:10093000EF90DF90CF9008959D9191938F5F75CF49
:1009400085EEB0CF8091F3059091F405A091F50567
:10095000B091F605892B8A2B8B2B09F4A9CF0E9425
:1009600064020091F3051091F4052091F505309192
:10097000F6056C197D098E099F09061717072807C8
:10098000390708F095CFC5CF089590E080E008952D
:100990000F931F93CF938C01C62F0E94DD036C2F02
:1009A0006460C8010E94DD036C2F6B7FC8010E9448
:1009B000DD0383EC90E00197F1F7CF911F910F9148
:1009C00008950F931F93CF93DF938C01D62FC42FDD
:1009D000607F642B0E94C80480E1D89FB00111247D
:1009E0006C2BC801DF91CF911F910F910C94C8041B
:1009F000CF93DF9300D000D01F921F92CDB7DEB708
:100A000028E0E0E3F2E0DE01119601900D922A95D4
:100A1000E1F7FC012085261708F46FEF70E0660F00
:100A2000771F21E030E02C0F3D1F620F731FFB0189
:100A30006081606840E028960FB6F894DEBF0FBE74
:100A4000CDBFDF91CF910C94E10440E061E00E94C2
:100A5000E1048BE39FE10197F1F7089541E00E94E3
:100A6000E10481E090E008950F931F93CF93DF930B
:100A7000EC011092EF051092EE051092F105109224
:100A8000F0050E94160385E593E090931906809384
:100A9000180686E593E090931D0680931C061D8240
:100AA0008A85823010F098E09D83888762E370E049
:100AB00080E090E00E9489026B85CE010E94DD03F8
:100AC00068EE73E080E090E00E94890260E3CE016E
:100AD0000E94C8040BE416E4C8010197F1F760E333
:100AE000CE010E94C804C8010197F1F760E3CE016E
:100AF0000E94C80483E592E00197F1F760E2CE011D
:100B00000E94C8046D81606240E0CE010E94E10451
:100B100084E08E8340E06CE0CE010E94E104CE01CF
:100B20000E94250582E08F8340E066E0CE010E94AE
:100B3000E10440E062E0CE010E94E1048BE39FE12A
:100B40000197F1F7DF91CF911F910F910895EF92E7
:100B5000FF920F931F93CF93DF93EC017B011982D8
:100B600018821B821A821D821C82FB0101900020C8
:100B7000E9F731978F01061B170BB8016F5F7F4FA5
:100B800090E080E00E94760D0097B9F09983888309
:100B90001B830A832C813D81232B11F4FC011082DD
:100BA0001D830C83B70188819981DF91CF911F91BB
:100BB0000F91FF90EF900C94600E888199810097BF
:100BC00011F00E94ED0C198218821D821C821B827A
:100BD0001A82DF91CF911F910F91FF90EF900895AE
:100BE00085ED8093BC008091F3059091F405A09170
:100BF000F505B091F6050796A11DB11D23E0B69548
:100C0000A795979587952A95D1F72091BC0024FD4B
:100C100003C01092400608954091F3055091F405E9
:100C20006091F5057091F605452B462B472B69F32E
:100C30000097A105B10541F02AE22A95F1F700C01D
:100C40000197A109B109E1CF8091F2050C94340319
:100C50001F920F920FB60F9211242F933F938F93F1
:100C60009F93AF93BF938091AF069091B006A091F0
:100C7000B106B091B2063091AE0623E0230F2D37B6
:100C800058F50196A11DB11D2093AE068093AF06C5
:100C90009093B006A093B106B093B2068091B306CC
:100CA0009091B406A091B506B091B6060196A11D2B
:100CB000B11D8093B3069093B406A093B506B0938C
:100CC000B606BF91AF919F918F913F912F910F9059
:100CD0000FBE0F901F90189526E8230F0296A11DB6
:100CE000B11DD2CF1F920F920FB60F9211240BB6E7
:100CF0000F922F933F934F935F936F937F938F93B5
:100D00009F93AF93BF93EF93FF938091B900887F38
:100D1000803609F44DC008F040C0883209F4A9C0FB
:100D200028F5803109F49DC0C8F4882309F4FBC07C
:100D3000883009F496C0FF91EF91BF91AF919F91D8
:100D40008F917F916F915F914F913F912F910F9074
:100D50000BBE0F900FBE0F901F901895883109F4AD
:100D600088C0803241F780933F0614C0803409F474
:100D70009DC040F48033B9F38833E9F680933F0691
:100D800085ECB0C0803509F485C0883509F496C07B
:100D9000883489F60E94F005CECF883909F48CC0DA
:100DA00038F5883729F050F4883611F0803719F675
:100DB00083E08093400610923E0657C0883809F4BD
:100DC0007BC0803919F0803809F0B5CF80913E069C
:100DD000803208F071C0E0913E0681E08E0F809372
:100DE0003E068091BB00F0E0E25EF94F80833DC09B
:100DF000803B39F0E0F4803A09F479C0883A09F090
:100E00009ACF84E08093400610921B0610921A0637
:100E1000E0911806F0911906199580911A06811132
:100E20000FC081E080931A061092F80509C0803C3B
:100E300009F4A6CF883C09F4A3CF883B09F07BCF07
:100E4000E0911B0681E08E0F80931B06F0E0E850D6
:100E5000FA4F80818093BB0090911B0680911A0607
:100E600029C0809165068093BB0085EC8093BC000F
:100E700062CF9091640680916306981758F5E091CF
:100E8000640681E08E0F80936406F0E0ED5BF94F1D
:100E90008081E9CFE091640681E08E0F8093640643
:100EA0008091BB00F0E0ED5BF94F80839091640688
:100EB000809163069817C8F285E8D8CFE091640660
:100EC00081E08E0F809364068091BB00F0E0ED5BC3
:100ED000F94F80838091420681115CCF81E080933D
:100EE000410684EA8093BC001092400624CF85EC32
:100EF0008093BC001092400680913E06803230F410
:100F0000E0913E06F0E0E25EF94F108260913E060D
:100F100070E0E0911C06F0911D068EE196E01995B7
:100F200010923E0608CF10923F0634CFE7EBF6E072
:100F30001382128288EE93E0A0E0B0E08483958370
:100F4000A683B7838CE392E091838083E5E9F7E0A1
:100F5000138212822EE432E03183208387E284837D
:100F600098E2918782E082871386E9E8F7E01382AE
:100F700012823183208323E2248391878287138620
:100F800066E572E083EC96E00E94A70561E672E0F8
:100F900089EC96E00E94A70561E772E08FEC96E08D
:100FA0000E94A7056AE772E085ED96E00E94A7051A
:100FB0006FE972E08BED96E00E94A70567EC72E0A6
:100FC00081EE96E00E94A7056CEE72E087EE96E057
:100FD0000E94A70560E173E08DEE96E00E94A705F0
:100FE00063E273E083EF96E00E94A70569E373E094
:100FF00089EF96E00E94A7056FE473E08FEF96E01B
:101000000E94A70568E673E085E097E00E94A705C7
:1010100060E873E08BE097E00E94A7056EE973E05B
:1010200081E197E00E94A7056FEB73E087E197E00D
:101030000E94A7056FED73E08DE197E00E94A70580
:1010400060EF73E083E297E00E94A70560E174E03F
:1010500089E297E00E94A70567E374E08FE297E0DA
:101060000E94A7056DE574E085E397E00E94A7055F
:101070006CE774E08BE397E00E94A70563E974E0F6
:1010800081E497E00E94A7056CE774E087E497E0AD
:101090000E94A7056BEA74E08DE497E00E94A70523
:1010A00060EC74E083E597E00E94A7056EED74E0C4
:1010B00089E597E00E94A7056EEF74E08FE597E061
:1010C0000E94A7056AE175E085E697E00E94A70502
:1010D00067E375E08BE697E00E94A70562E575E09F
:1010E00081E797E00E94A70563E675E087E797E050
:1010F0000E94A70562E875E08DE797E00E94A705CA
:1011000065E975E083E897E00C94A705789484B5C9
:10111000826084BD84B5816084BD85B5826085BDF3
:1011200085B5816085BD80916E00816080936E0081
:101130001092810080918100826080938100809173
:101140008100816080938100809180008160809324
:1011500080008091B10084608093B1008091B000E4
:1011600081608093B00080919100826080939100B3
:1011700080919100816080939100809190008160C6
:10118000809390008091A10082608093A100809163
:10119000A10081608093A1008091A0008160809374
:1011A000A000809121018260809321018091210122
:1011B00081608093210180912001816080932001D2
:1011C00080917A00846080937A0080917A008260B6
:1011D00080937A0080917A00816080937A00809178
:1011E0007A00806880937A001092C10085E997E0C8
:1011F0000E94340585E997E00E942505C8E0C09368
:10120000A00760E085E997E00E94DD0389E897E0A8
:101210000E94340589E897E00E942505C093940751
:1012200060E089E897E00E94DD03C6E160E08C2F72
:101230000E943302CF5FC433C9F760E086E30E94A7
:10124000330260E087E30E94330260E088E30E949B
:10125000330261E085E30E94330260E084E30E9490
:101260003302EEE12E2E312CFFE14F2E512CA0E265
:10127000EA2EF12CCAE0D0E001E010E040E2642E5A
:1012800055E1A52E52E0B52E66E0762E70E0C72E11
:1012900070E0D72E84E30E94DC01892B41F560E0E9
:1012A00085E997E00E94F804E0E0F2E00190002078
:1012B000E9F7AF014150524060E072E085E997E004
:1012C0000E94BB0261E085E30E94050264E670E0D3
:1012D00080E090E00E94890260E085E30E940502C0
:1012E00064E670E080E090E00E948902D3CF109223
:1012F000AB061092AA061092AD061092AC0636E12B
:10130000832E912C882D0E94DC01892BE9F080919D
:10131000AA069091AB0601969093AB068093AA061D
:101320008091AC069091AD069C012F5F3F4F3093AA
:10133000AD062093AC06880F991FFC01E859F94FC0
:10134000C401469791838083FFEF8F1A9F0A84E33D
:1013500088169104B9F686E30E94DC01892BD9F046
:101360008091AA069091AB0601969093AB0680936C
:10137000AA068091AC069091AD069C012F5F3F4F6D
:101380003093AD062093AC06880F991FFC01E859F5
:10139000F94F3182208287E30E94DC01892BD9F04A
:1013A0008091AA069091AB0601969093AB0680932C
:1013B000AA068091AC069091AD069C012F5F3F4F2D
:1013C0003093AD062093AC06880F991FFC01E859B5
:1013D000F94F5182408288E30E94DC01892BD9F0C9
:1013E0008091AA069091AB0601969093AB068093EC
:1013F000AA068091AC069091AD069C012F5F3F4FED
:101400003093AD062093AC06880F991FFC01E85974
:10141000F94FF182E0828090AA069090AB0680910D
:101420006606909167068815990574F461E085E376
:101430000E94050264EF71E080E090E00E94890262
:1014400060E085E30E94050290926706809266063E
:10145000EAE08E1691040CF459C0C401BE010E944A
:10146000210C605D60932702C401BE010E94210C23
:10147000805D8093280260E085E997E00E94F8048F
:10148000F50101900020E9F7AF014651524065E1B6
:1014900072E085E997E00E94BB021092AD061092BF
:1014A000AC068090AA069090AB06F1E08F169104EE
:1014B00081F561E085E997E00E94F8049092AD061D
:1014C0008092AC068091680690916906789EB00182
:1014D000799E700D11246D53794F85E997E00E9434
:1014E000E80268EE73E080E090E00E94890285E9FE
:1014F00097E00E94250589E897E00E942505C11420
:10150000D10409F4C7CE0E940000B8CE6092270231
:10151000ABCF82E088169104C9F561E085E997E0D8
:101520000E94F8041093AD060093AC068091680603
:1015300090916906789EB001799E700D11246D53CB
:10154000794F85E997E00E94E80260E089E897E03A
:101550000E94F8048091AC069091AD069C012F5F2B
:101560003F4F3093AD062093AC06880F991FFC01C6
:10157000E859F94F80819181789EB001799E700D74
:1015800011246D53794F89E897E0A9CFE3E08E16D7
:1015900091040CF4B4CF61E085E997E00E94F8046F
:1015A0001093AD060093AC06809168069091690691
:1015B000789EB001799E700D11246D53794F85E9A5
:1015C00097E00E94E80260E089E897E00E94F80452
:1015D0008091AC069091AD069C012F5F3F4F3093F8
:1015E000AD062093AC06880F991FFC01E859F94F0E
:1015F00080819181789EB001799E700D11246D5388
:10160000794F89E897E00E94E80261E089E897E075
:101610000E94F8048091AC069091AD069C012F5F6A
:101620003F4F3093AD062093AC06880F991FFC0105
:10163000E859F94F80819181789EB001799E700DB3
:1016400011246D53794F89E897E00E94E80268EE13
:1016500073E080E090E00E94890285E997E00E94B3
:10166000250589E897E00E9425058091AA069091BA
:10167000AB0603979093AB068093AA068091AA06C7
:101680009091AB06181619060CF039CF60E085E989
:1016900097E00E94F8048091AC069091AD069C0101
:1016A0002F5F3F4F3093AD062093AC06880F991FF4
:1016B000FC01E859F94F80819181789EB001799EB3
:1016C000700D11246D53794F85E997E00E94E8026F
:1016D0008091AA069091AB0601979093AB068093F8
:1016E000AA06892B59F161E085E997E00E94F80488
:1016F0008091AC069091AD069C012F5F3F4F3093D7
:10170000AD062093AC06880F991FFC01E859F94FEC
:1017100080819181789EB001799E700D11246D5366
:10172000794F85E997E00E94E8028091AA0690919E
:10173000AB0601979093AB068093AA068091AA0608
:101740009091AB06892B59F160E089E897E00E94FF
:10175000F8048091AC069091AD069C012F5F3F4F3D
:101760003093AD062093AC06880F991FFC01E85911
:10177000F94F80819181789EB001799E700D11247E
:101780006D53794F89E897E00E94E8028091AA069C
:101790009091AB0601979093AB068093AA06809137
:1017A000AA069091AB06892B59F161E089E897E090
:1017B0000E94F8048091AC069091AD069C012F5FC9
:1017C0003F4F3093AD062093AC06880F991FFC0164
:1017D000E859F94F80819181789EB001799E700D12
:1017E00011246D53794F89E897E00E94E8028091B7
:1017F000AA069091AB0601979093AB068093AA0638
:1018000068EE73E080E090E00E94890285E997E04D
:101810000E94250589E897E00E9425052FCFCF93E8
:10182000DF93C9E8D7E0269788819981009711F066
:101830000E94ED0C86E0C33CD807A9F7DF91CF9159
:10184000089597FB072E16F4009407D077FD09D072
:101850000E943D0C07FC05D03EF4909581959F4F6A
:101860000895709561957F4F0895EE0FFF1F881FB3
:101870008BBF0790F691E02D1994AA1BBB1B51E179
:1018800007C0AA1FBB1FA617B70710F0A61BB70BF0
:10189000881F991F5A95A9F780959095BC01CD0195
:1018A00008950F931F93CF93DF938230910510F427
:1018B00082E090E0E091A307F091A40730E020E0FF
:1018C000B0E0A0E0309799F42115310509F44AC041
:1018D000281B390B24303105D8F58A819B8161158D
:1018E000710589F1FB0193838283FE0111C0408160
:1018F00051810281138148175907E0F048175907B1
:1019000099F4109761F012960C93129713961C930A
:101910003296CF01DF91CF911F910F9108950093DF
:10192000A3071093A407F4CF2115310551F04217F6
:10193000530738F0A901DB019A01BD01DF01F8016D
:10194000C1CFEF01F9CF9093A4078093A307CDCF28
:10195000FE01E20FF31F81939193225031093983E5
:101960002883D7CF2091A1073091A207232B41F4E0
:1019700020912C0230912D023093A2072093A107D1
:1019800020912A0230912B022115310541F42DB707
:101990003EB740912E0250912F02241B350BE0914F
:1019A000A107F091A207E217F307A0F42E1B3F0B4B
:1019B0002817390778F0AC014E5F5F4F24173507C1
:1019C00048F04E0F5F1F5093A2074093A1078193E9
:1019D00091939FCFF0E0E0E09CCFCF93DF9300970F
:1019E000E9F0FC01329713821282A091A307B09113
:1019F000A407ED0130E020E01097A1F420813181AF
:101A0000820F931F2091A1073091A2072817390751
:101A100009F061C0F093A207E093A107DF91CF9195
:101A20000895EA01CE17DF07E8F54A815B819E0140
:101A300041155105B1F7E901FB83EA8349915991B9
:101A4000C40FD51FEC17FD0761F4808191810296C8
:101A5000840F951FE90199838883828193819B83F9
:101A60008A83F0E0E0E012968D919C9113970097A5
:101A7000B9F52D913C911197CD010296820F931FDC
:101A80002091A1073091A2072817390739F630971E
:101A900051F51092A4071092A307B093A207A09348
:101AA000A107BCCFD383C28340815181840F951F8E
:101AB000C817D90761F44E5F5F4F88819981480F3D
:101AC000591F518340838A819B819383828321158F
:101AD000310509F0B0CFF093A407E093A3079ECFA0
:101AE000FD01DC01C0CF13821282D7CF4F925F92EB
:101AF0006F927F928F929F92AF92BF92CF92DF921E
:101B0000EF92FF920F931F93CF93DF938C01009777
:101B100099F4CB01DF91CF911F910F91FF90EF903E
:101B2000DF90CF90BF90AF909F908F907F906F90FD
:101B30005F904F900C94510CFC01E60FF71F9C0135
:101B400022503109E217F30708F4AEC0D901CD9154
:101B5000DC911197C617D70720F1C530D10578F071
:101B6000CE0104978617970750F0C61BD70B229714
:101B7000C193D1936D937C93CF010E94ED0CC8016A
:101B8000DF91CF911F910F91FF90EF90DF90CF9059
:101B9000BF90AF909F908F907F906F905F904F908D
:101BA00008955B01AC1ABD0A4C018C0E9D1EA091DC
:101BB000A307B091A407512C412CF12CE12C1097D4
:101BC00031F58091A1079091A2078815990509F038
:101BD0005CC04616570608F058C080912A029091C2
:101BE0002B02009741F48DB79EB740912E02509181
:101BF0002F02841B950BE817F90708F055C0F093E6
:101C0000A207E093A107F90171836083B8CF8D919A
:101C10009C91119712966C90129713967C90139743
:101C2000A815B90559F56C0142E0C40ED11CCA14BF
:101C3000DB0420F1AC014A195B09DA011296159711
:101C400080F06282738251834083D9016D937C93CB
:101C5000E114F10471F0D7011396FC93EE931297FF
:101C60008ECF22968C0F9D1FF90191838083F30103
:101C7000EFCFF093A407E093A30781CF481659064E
:101C800008F42C017D01D3019ACFCB010E94510CA5
:101C90007C01009749F0AE01B8010E94570EC801BF
:101CA0000E94ED0C87016BCF10E000E068CFFB01D4
:101CB000DC0102C001900D9241505040D8F70895C8
:101CC000FB01DC0101900D920020E1F7089511E085
:101CD000C1E4D1E000E006C0802FFE010E94350C77
:101CE0002196011DC234D10780E00807A9F7F894B6
:021CF000FFCF24
:101CF2002020202049474E4954494F4E204F4E2024
:101D020020202020004F70656E20446F6F72732078
:101D1200436F756E743D202020000000A5078000EF
:101D2200000040001400540000000000AE038103D4
:101D3200C50457037A0367035803000000002E0509
:101D4200BB02C504C404456E74727920446F6F727D
:101D5200004D6F746F72686F6D6520536C696465B6
:101D620000536B796C6967687400536B796C6967AF
:101D72006874204F70617175652053637265656E7A
:101D8200206E6F74205265747261637465640053CF
:101D92006B796C6967687420496E7365637420534C
:101DA200637265656E206973206E6F74205265746C
:101DB200726163746564005269676874204B697468
:101DC2006368656E204F766572686561642043754D
:101DD20070626F61726420446F6F72004C6566744A
:101DE200204B69746368656E204F76657268656121
:101DF2006420437570626F61726420446F6F720079
:101E0200546F70204B69746368656E204472617709
:101E12006572004D6964646C65204B697463686522
:101E22006E2044726177657200426F74746F6D2028
:101E32004B69746368656E20447261776572005500
:101E42006E6465722D53696E6B20437570626F61AB
:101E5200726420446F6F720057696E6520536C691B
:101E6200646520436162696E657420446F6F72001D
:101E72005574696C69747920556E64657220426587
:101E82006E636820466C61702D446F6F72005269F8
:101E9200676874205574696C69747920556E64653D
:101EA200722D42656E636820447261776572004CE0
:101EB200656674205574696C69747920556E646521
:101EC200722D42656E6368204472617765720049C3
:101ED2005420437570626F61726420446F6F7200A8
:101EE200526967687420466C6F6F722D4C65766517
:101EF2006C20437570626F61726420446F6F720070
:101F020052696768742D43656E74726520466C6F02
:101F12006F722D4C6576656C20437570626F6172CD
:101F22006420446F6F72004C6566742D43656E7455
:101F3200726520466C6F6F722D4C6576656C20431E
:101F42007570626F61726420446F6F72004C6566D7
:101F52007420466C6F6F722D4C6576656C204375EC
:101F620070626F61726420446F6F720052696768B9
:101F72007420466C6F6F722D4C6576656C204472CE
:101F82006177004D6964646C6520466C6F6F722DD9
:101F92004C6576656C2044726177004261746872A8
:101FA2006F6F6D20536964696E6720446F6F7200B2
:101FB200526967687420556E6465722D56616E6948
:101FC200747920446F6F72202848575329004C655A
:101FD20066742042617468726F6F6D20556E64651D
:101FE200722D56616E69747920446F6F7200526966
:101FF200676874204F7665722D48656164204C6F66
:10200200636B657220446F6F720043656E74726514
:10201200204F7665722D48656164204C6F636B6555
:102022007220446F6F72004C656674204F76657241
:102032002D48656164204C6F636B657220446F6F3D
:10204200720042617468726F6F6D732057696E64BB
:102052006F770053686F726520506F7765722069E1
:1020620073207374696C6C20636F6E6E6563746544
:1020720064004472697665722D53696465204C6F01
:10208200636B65720050617373656E6765722D5381
:0C209200696465204C6F636B6572000090
:00000001FF
