:100000000C9442010C9473010C9473010C947301D1
:100010000C9473010C9473010C9473010C94730190
:100020000C9473010C9473010C9473010C94730180
:100030000C9473010C9473010C9473010C94730170
:100040000C9473010C9473010C9473010C94730160
:100050000C9473010C9473010C9473010C94280696
:100060000C9473010C9473010C9473010C94730140
:100070000C9473010C9473010C9473010C94730130
:100080000C9473010C9473010C9473010C94730120
:100090000C9473010C9473010C9473010C9472060C
:1000A0000C9473010C9473010C9473010C94730100
:1000B0000C9473010C9473010C9473010C947301F0
:1000C0000C9473010C9473010C9473010C947301E0
:1000D0000C9473010C9473010C9473010C947301D0
:1000E0000C9473010C94A1010C9493010C947A0369
:1000F0000C949D010C94AE030C94D3010C94C50494
:100100000C9457030C9496070C9467030C947C0B87
:100110000C94A8010C94A5010C94B2010C94C60196
:100120000C94D4010C9456030C94D8010C949901AE
:100130000C94C0010C94BC010C9481030C94B80184
:100140000C942E050C9455030C94C4040C94CA0111
:100150000C9458030C94CE010C94BB020C94AE0189
:1001600000002100240027002A002D003000330069
:1001700001010000040107010A010000220025001E
:1001800028002B002E003100340002010000050180
:1001900008010B01000020002300260029002C008C
:1001A0002F003200000100000301060109010505CE
:1001B0000505070508080808020202020A0A0808DD
:1001C000040404040101010101010101030303030B
:1001D00003030303040707070C0C0C0C0C0C0C0C9A
:1001E0000202020206060606060606060B0B0B0BAB
:1001F0000B0B0B0B010210202008081020401020D0
:1002000040800201020108040201010204081020DA
:1002100040808040201008040201800402018040D8
:100220002010080402010804020101020408102041
:100230004080010204081020408000000A0B0209DF
:100240000C0D0E0807030401000000000000000070
:10025000000000000000000000000000000000009E
:10026000000000000000121110000000000000005B
:10027000000000000000000000000000000000007E
:1002800096077C0B11241FBECFEFD1E2DEBFCDBF9E
:1002900000E00CBF27E0A2E8B5E001C01D92A33644
:1002A000B207E1F715E0A0E0B2E0ECECFBE100E022
:1002B0000BBF02C007900D92A238B107D9F711E029
:1002C000C1E4D1E000E006C021970109802FFE01C2
:1002D0000E94A20BC034D10780E00807A9F70E9452
:1002E00074080C94D40D0C9400008150823108F0F5
:1002F0005AC0E82FF0E08827EF57FE4F8F4F0C943D
:10030000A20BA101A501930199019D01D301A801AF
:10031000AE01B201B801BC01C001C601CA01D301DE
:10032000CE01D401D801809180008F778093800026
:100330000895809180008F7DF9CF80918000877F24
:10034000F5CF84B58F7784BD089584B58F7DFBCFBD
:100350008091B0008F778093B00008958091B000B5
:100360008F7DF9CF809190008F77809390000895D2
:10037000809190008F7DF9CF80919000877FF5CF9D
:100380008091A0008F778093A00008958091A000B5
:100390008F7DF9CF8091A000877FF5CF80912001DC
:1003A0008F77809320010895809120018F7DF9CF70
:1003B00080912001877FF5CFCF93DF93282F30E006
:1003C000F901E65CFD4F8491F901EC50FE4FD491A8
:1003D000F901E255FE4FC491CC23A1F081110E9496
:1003E0007501EC2FF0E0EE0FFF1FEC56FE4FA591CC
:1003F000B491EC91ED2381E090E009F480E0DF918D
:10040000CF91089580E090E0FACF1F93CF93DF93D0
:10041000282F30E0F901E65CFD4F8491F901EC50A2
:10042000FE4FD491F901E255FE4FC491CC23A9F0BF
:10043000162F81110E947501EC2FF0E0EE0FFF1FC7
:10044000E658FE4FA591B4918FB7F894EC91111135
:1004500008C0D095DE23DC938FBFDF91CF911F9131
:100460000895DE2BF8CFCF93DF9390E0FC01EC50A2
:10047000FE4F249182559E4FFC0184918823D1F038
:1004800090E0880F991FFC01E05AFE4FA591B491AE
:10049000FC01E658FE4FC591D49161110EC09FB783
:1004A000F8948C91E22FE0958E238C932881E2239F
:1004B000E8839FBFDF91CF9108958FB7F894EC91B7
:1004C000E22BEC938FBFF6CF3FB7F8948091830671
:1004D00090918406A0918506B091860626B5A89BCA
:1004E00005C02F3F19F00196A11DB11D3FBFBA2FC6
:1004F000A92F982F8827BC01CD01620F711D811D86
:10050000911D42E0660F771F881F991F4A95D1F70A
:1005100008958F929F92AF92BF92CF92DF92EF9207
:10052000FF924B015C010E9464026B017C010E94FE
:1005300064026C197D098E099F09683E734081052C
:100540009105A8F321E0821A9108A108B10888EE6C
:10055000C80E83E0D81EE11CF11C81149104A10493
:10056000B10429F7FF90EF90DF90CF90BF90AF904C
:100570009F908F900895AF92BF92CF92DF92EF92AB
:10058000FF920F931F93CF93DF936C017B018B013D
:10059000040F151FEB015E01AE18BF08C017D1078D
:1005A00059F06991D601ED91FC910190F081E02D17
:1005B000C6011995892B79F7C501DF91CF911F915C
:1005C0000F91FF90EF90DF90CF90BF90AF90089584
:1005D000FB0144815581608171810C94BB022091A3
:1005E000F005260F3327331F21323105ECF420911B
:1005F0001606FC0190E080E0243069F082E0089566
:10060000A091F0052191AC0142535A4FA40FB52F90
:10061000B11D2C930196861798F38091F005680F11
:100620006093F00580E0089581E008951092160629
:1006300081E0809318061092170661E084E10E9421
:10064000050261E085E10E940502E9EBF0E08081AE
:100650008E7F808380818D7F808388E48093B80043
:1006600085E48093BC000895CF93DF9391E090934D
:10067000CD058823B9F0C091B800D091BA0080911F
:10068000BC008A7B8093BC0060E084E10E9405028C
:1006900060E085E10E9405020E941603D093BA0033
:1006A000C093B800DF91CF910895089508950895FB
:1006B000E091C5058091C405E81730F4F0E0EC55F1
:1006C000FA4F808190E008958FEF9FEF0895909109
:1006D000C5058091C4052FEF3FEF981748F4E92F27
:1006E000F0E0EC55FA4F208130E09F5F9093C50514
:1006F000C90108958091C4059091C505891B990B86
:100700000895CF92DF92EF92FF920F931F93CF93B2
:10071000DF937C01CB018A012091A305222389F07C
:10072000EB016B01C40ED51ECC15DD0569F0699196
:10073000D701ED91FC910190F081E02DC701199551
:10074000F3CF642F0E94EF02C801DF91CF911F9178
:100750000F91FF90EF90DF90CF900895CF93DF93AC
:100760001F92CDB7DEB769832091A3052223F9F04C
:100770002091C605203258F021E030E0FC0133839F
:10078000228390E080E00F90DF91CF9108958091D7
:10079000C705E82FF0E0ED57FA4F998190838F5FFE
:1007A0008093C7058093C60581E090E0ECCF61E0BF
:1007B000CE0101960E94EF02F7CFCF92DF92EF9227
:1007C000FF920F931F93CF93DF93FC01C48121E02D
:1007D0002093A305C09382051092C7051092C60509
:1007E0008385682B87E896E00E94AE03D091C6050A
:1007F000D13208F092C00E9464026B017C018091AA
:100800001606811165C082E08093160681E0809310
:1008100018068FEF8093150610923A06D09339068A
:10082000A3E8B5E0E9E1F6E080E0D81385C01092D6
:100830003B0680913B06CC0FC82BC0933B068091B2
:100840001706813009F07CC0109217060E946402DE
:100850006B017C0180913B068093BB008091C905B0
:100860009091CA05A091CB05B091CC05892B8A2B1C
:100870008B2B99F00E9464020091C9051091CA0562
:100880002091CB053091CC056C197D098E099F090B
:100890000617170728073907E0F18091BC0083FD90
:1008A000D9CF85EC8093BC000E9464026B017C016F
:1008B00080911606823009F445C0809115068F3F5D
:1008C00061F180911506803241F18091150625C0B5
:1008D0008091C9059091CA05A091CB05B091CC0536
:1008E000892B8A2B8B2B09F48ACF0E9464020091FA
:1008F000C9051091CA052091CB053091CC056C1922
:100900007D098E099F09061717072807390708F080
:1009100076CF8091C8050E9434031092C7051092CB
:10092000C6051092A305DF91CF911F910F91FF9003
:10093000EF90DF90CF9008959D9191938F5F75CF49
:1009400085EEB0CF8091C9059091CA05A091CB05E5
:10095000B091CC05892B8A2B8B2B09F4A9CF0E944F
:1009600064020091C9051091CA052091CB05309110
:10097000CC056C197D098E099F09061717072807F2
:10098000390708F095CFC5CF089590E080E008952D
:100990000F931F93CF938C01C62F0E94DD036C2F02
:1009A0006460C8010E94DD036C2F6B7FC8010E9448
:1009B000DD0383EC90E00197F1F7CF911F910F9148
:1009C00008950F931F93CF93DF938C01D62FC42FDD
:1009D000607F642B0E94C80480E1D89FB00111247D
:1009E0006C2BC801DF91CF911F910F910C94C8041B
:1009F000CF93DF9300D000D01F921F92CDB7DEB708
:100A000028E0E0E3F2E0DE01119601900D922A95D4
:100A1000E1F7FC012085261708F46FEF70E0660F00
:100A2000771F21E030E02C0F3D1F620F731FFB0189
:100A30006081606840E028960FB6F894DEBF0FBE74
:100A4000CDBFDF91CF910C94E10440E061E00E94C2
:100A5000E1048BE39FE10197F1F7089541E00E94E3
:100A6000E10481E090E008950F931F93CF93DF930B
:100A7000EC011092C5051092C4051092C7051092A2
:100A8000C6050E94160385E593E09093EF058093D9
:100A9000EE0586E593E09093F3058093F2051D82C1
:100AA0008A85823010F098E09D83888762E370E049
:100AB00080E090E00E9489026B85CE010E94DD03F8
:100AC00068EE73E080E090E00E94890260E3CE016E
:100AD0000E94C8040BE416E4C8010197F1F760E333
:100AE000CE010E94C804C8010197F1F760E3CE016E
:100AF0000E94C80483E592E00197F1F760E2CE011D
:100B00000E94C8046D81606240E0CE010E94E10451
:100B100084E08E8340E06CE0CE010E94E104CE01CF
:100B20000E94250582E08F8340E066E0CE010E94AE
:100B3000E10440E062E0CE010E94E1048BE39FE12A
:100B40000197F1F7DF91CF911F910F910895EF92E7
:100B5000FF920F931F93CF93DF93EC017B011982D8
:100B600018821B821A821D821C82FB0101900020C8
:100B7000E9F731978F01061B170BB8016F5F7F4FA5
:100B800090E080E00E94E30C0097B9F0998388839D
:100B90001B830A832C813D81232B11F4FC011082DD
:100BA0001D830C83B70188819981DF91CF911F91BB
:100BB0000F91FF90EF900C94CD0D88819981009753
:100BC00011F00E945A0C198218821D821C821B820D
:100BD0001A82DF91CF911F910F91FF90EF900895AE
:100BE00085ED8093BC008091C9059091CA05A091C4
:100BF000CB05B091CC050796A11DB11D23E0B6959C
:100C0000A795979587952A95D1F72091BC0024FD4B
:100C100003C01092160608954091C9055091CA0567
:100C20006091CB057091CC05452B462B472B69F382
:100C30000097A105B10541F02AE22A95F1F700C01D
:100C40000197A109B109E1CF8091C8050C94340343
:100C50001F920F920FB60F9211242F933F938F93F1
:100C60009F93AF93BF9380917F0690918006A09150
:100C70008106B091820630917E0623E0230F2D3746
:100C800058F50196A11DB11D20937E0680937F0625
:100C900090938006A0938106B0938206809183068C
:100CA00090918406A0918506B09186060196A11DBB
:100CB000B11D8093830690938406A0938506B0931C
:100CC0008606BF91AF919F918F913F912F910F9089
:100CD0000FBE0F901F90189526E8230F0296A11DB6
:100CE000B11DD2CF1F920F920FB60F9211240BB6E7
:100CF0000F922F933F934F935F936F937F938F93B5
:100D00009F93AF93BF93EF93FF938091B900887F38
:100D1000803609F44DC008F040C0883209F4A9C0FB
:100D200028F5803109F49DC0C8F4882309F4FBC07C
:100D3000883009F496C0FF91EF91BF91AF919F91D8
:100D40008F917F916F915F914F913F912F910F9074
:100D50000BBE0F900FBE0F901F901895883109F4AD
:100D600088C0803241F78093150614C0803409F49E
:100D70009DC040F48033B9F38833E9F680931506BB
:100D800085ECB0C0803509F485C0883509F496C07B
:100D9000883489F60E94F005CECF883909F48CC0DA
:100DA00038F5883729F050F4883611F0803719F675
:100DB00083E0809316061092140657C0883809F411
:100DC0007BC0803919F0803809F0B5CF80911406C6
:100DD000803208F071C0E091140681E08E0F80939C
:100DE00014068091BB00F0E0EC50FA4F80833DC0C8
:100DF000803B39F0E0F4803A09F479C0883A09F090
:100E00009ACF84E0809316061092F1051092F005B7
:100E1000E091EE05F091EF0519958091F0058111B3
:100E20000FC081E08093F0051092CE0509C0803C90
:100E300009F4A6CF883C09F4A3CF883B09F07BCF07
:100E4000E091F10581E08E0F8093F105F0E0E2532F
:100E5000FA4F80818093BB009091F1058091F0055D
:100E600029C080913B068093BB0085EC8093BC0039
:100E700062CF90913A0680913906981758F5E09123
:100E80003A0681E08E0F80933A06F0E0E75EF94F74
:100E90008081E9CFE0913A0681E08E0F80933A0697
:100EA0008091BB00F0E0E75EF94F808390913A06B5
:100EB000809139069817C8F285E8D8CFE0913A06B4
:100EC00081E08E0F80933A068091BB00F0E0E75EF0
:100ED000F94F80838091180681115CCF81E0809367
:100EE000170684EA8093BC001092160624CF85EC86
:100EF0008093BC001092160680911406803230F464
:100F0000E0911406F0E0EC50FA4F10826091140664
:100F100070E0E091F205F091F30584EF95E019950A
:100F20001092140608CF1092150634CFE7E8F6E0C9
:100F30001382128288EE93E0A0E0B0E08483958370
:100F4000A683B7838CE392E091838083E3E5F7E0A7
:100F5000138212822EE432E03183208387E284837D
:100F600098E2918782E082871386E7E4F7E01382B4
:100F700012823183208323E2248391878287138620
:100F800066E572E083E996E00E94A70561E672E0FB
:100F900089E996E00E94A70561E772E08FE996E093
:100FA0000E94A7056AE772E085EA96E00E94A7051D
:100FB00067EA72E08BEA96E00E94A7056FEC72E0A8
:100FC00081EB96E00E94A70564EF72E087EB96E064
:100FD0000E94A70568E173E08DEB96E00E94A705EB
:100FE0006BE273E083EC96E00E94A70561E473E096
:100FF00089EC96E00E94A70567E573E08FEC96E028
:101000000E94A70560E773E085ED96E00E94A705C2
:1010100068E873E08BED96E00E94A70566EA73E04E
:1010200081EE96E00E94A70567EC73E087EE96E0FC
:101030000E94A70567EE73E08DEE96E00E94A7057B
:1010400068EF73E083EF96E00E94A70568E174E023
:1010500089EF96E00E94A7056FE374E08FEF96E0BA
:101060000E94A70565E674E085E097E00E94A70569
:1010700064E874E08BE097E00E94A7056BE974E0F8
:1010800081E197E00E94A70564E874E087E197E0BA
:101090000E94A70563EB74E08DE197E00E94A7052D
:1010A00068EC74E083E297E00E94A7056DEF74E0BE
:1010B00089E297E00E94A7056DE175E08FE297E075
:1010C0000E94A70569E375E085E397E00E94A70504
:1010D00066E575E08BE397E00E94A70561E775E0A0
:1010E00081E497E00C94A705789484B5826084BD70
:1010F00084B5816084BD85B5826085BD85B581601C
:1011000085BD80916E00816080936E001092810099
:101110008091810082608093810080918100816054
:101120008093810080918000816080938000809115
:10113000B10084608093B1008091B00081608093A1
:10114000B000809191008260809391008091910025
:1011500081608093910080919000816080939000E5
:101160008091A10082608093A1008091A1008160A4
:101170008093A1008091A00081608093A000809165
:1011800021018260809321018091210181608093FF
:1011900021018091200181608093200180917A005B
:1011A000846080937A0080917A00826080937A00D4
:1011B00080917A00816080937A0080917A008068C3
:1011C00080937A001092C10083E597E00E94340575
:1011D00083E597E00E94250587E497E00E943405A7
:1011E00087E497E00E942505C6E160E08C2F0E940D
:1011F0003302CF5FC433C9F761E085E30E94330255
:1012000060E084E30E943302B0E0AB2EB2E0BB2E7C
:10121000C0E26C2ECAE0D0E015E1E12E12E0F12E22
:1012200006E0702E80E0C82E80E0D82E01E010E0AD
:1012300084E30E94DC01892B39F560E083E597E0C7
:101240000E94F804F50101900020E9F7AF01415038
:10125000524060E072E083E597E00E94BB0261E0EB
:1012600085E30E94050264E670E080E090E00E9461
:10127000890260E085E30E94050264E670E080E098
:1012800090E00E948902D4CF10927B0610927A06D9
:1012900010927D0610927C06A6E18A2E912C882D54
:1012A0000E94DC01892BE9F080917A0690917B06FF
:1012B000019690937B0680937A0680917C069091AC
:1012C0007D069C012F5F3F4F30937D0620937C0667
:1012D000880F991FFC01E25CF94FC4014697918386
:1012E0008083FFEF8F1A9F0A84E388169104B9F672
:1012F00080907A0690907B0680913C0690913D0606
:101300008815990574F461E085E30E94050264EF95
:1013100071E080E090E00E94890260E085E30E9435
:10132000050290923D0680923C06EAE08E169104FA
:101330000CF459C0C401BE010E948E0B605D609325
:101340002702C401BE010E948E0B805D809328029B
:1013500060E083E597E00E94F804F7010190002027
:10136000E9F7AF014651524065E172E083E597E04D
:101370000E94BB0210927D0610927C0680907A0635
:1013800090907B06F1E08F16910481F561E083E592
:1013900097E00E94F80490927D0680927C068091EE
:1013A0003E0690913F06789EB001799E700D112403
:1013B0006D56794F83E597E00E94E80268EE73E08E
:1013C00080E090E00E94890283E597E00E94250575
:1013D00087E497E00E942505C114D10409F428CFC1
:1013E0000E94000025CF60922702ABCF82E08816D2
:1013F0009104C9F561E083E597E00E94F804109339
:101400007D0600937C0680913E0690913F06789E73
:10141000B001799E700D11246D56794F83E597E0E8
:101420000E94E80260E087E497E00E94F80480915F
:101430007C0690917D069C012F5F3F4F30937D0687
:1014400020937C06880F991FFC01E25CF94F808194
:101450009181789EB001799E700D11246D56794F5F
:1014600087E497E0A9CFE3E08E1691040CF4B4CFA3
:1014700061E083E597E00E94F80410937D060093F5
:101480007C0680913E0690913F06789EB001799E41
:10149000700D11246D56794F83E597E00E94E802A4
:1014A00060E087E497E00E94F80480917C069091C8
:1014B0007D069C012F5F3F4F30937D0620937C0675
:1014C000880F991FFC01E25CF94F80819181789E21
:1014D000B001799E700D11246D56794F87E497E025
:1014E0000E94E80261E087E497E00E94F80480919E
:1014F0007C0690917D069C012F5F3F4F30937D06C7
:1015000020937C06880F991FFC01E25CF94F8081D3
:101510009181789EB001799E700D11246D56794F9E
:1015200087E497E00E94E80268EE73E080E090E0D4
:101530000E94890283E597E00E94250587E497E0F1
:101540000E94250580917A0690917B0603979093DF
:101550007B0680937A0680917A0690917B06181616
:1015600019060CF039CF60E083E597E00E94F8049B
:1015700080917C0690917D069C012F5F3F4F3093B8
:101580007D0620937C06880F991FFC01E25CF94FD1
:1015900080819181789EB001799E700D11246D56E5
:1015A000794F83E597E00E94E80280917A06909156
:1015B0007B06019790937B0680937A06892B59F1DD
:1015C00061E083E597E00E94F80480917C069091A9
:1015D0007D069C012F5F3F4F30937D0620937C0654
:1015E000880F991FFC01E25CF94F80819181789E00
:1015F000B001799E700D11246D56794F83E597E007
:101600000E94E80280917A0690917B060197909360
:101610007B0680937A0680917A0690917B06892BCF
:1016200059F160E087E497E00E94F80480917C061D
:1016300090917D069C012F5F3F4F30937D06209354
:101640007C06880F991FFC01E25CF94F8081918133
:10165000789EB001799E700D11246D56794F87E404
:1016600097E00E94E80280917A0690917B060197AC
:1016700090937B0680937A0680917A0690917B0600
:10168000892B59F161E087E497E00E94F80480918A
:101690007C0690917D069C012F5F3F4F30937D0625
:1016A00020937C06880F991FFC01E25CF94F808132
:1016B0009181789EB001799E700D11246D56794FFD
:1016C00087E497E00E94E80280917A0690917B0679
:1016D000019790937B0680937A0668EE73E080E032
:1016E00090E00E94890283E597E00E94250587E447
:1016F00097E00E9425052FCFCF93DF93C7E4D7E073
:10170000269788819981009711F00E945A0C86E0F3
:10171000C339D807A9F7DF91CF91089597FB072E1A
:1017200016F4009407D077FD09D00E94AA0B07FC9D
:1017300005D03EF4909581959F4F089570956195E1
:101740007F4F0895EE0FFF1F881F8BBF0790F69104
:10175000E02D1994AA1BBB1B51E107C0AA1FBB1F98
:10176000A617B70710F0A61BB70B881F991F5A952D
:10177000A9F780959095BC01CD0108950F931F9313
:10178000CF93DF938230910510F482E090E0E091F6
:101790006107F091620730E020E0B0E0A0E0309710
:1017A00099F42115310509F44AC0281B390B24305E
:1017B0003105D8F58A819B816115710589F1FB019D
:1017C00093838283FE0111C0408151810281138184
:1017D00048175907E0F04817590799F4109761F036
:1017E00012960C93129713961C933296CF01DF91A9
:1017F000CF911F910F910895009361071093620795
:10180000F4CF2115310551F04217530738F0A901E3
:10181000DB019A01BD01DF01F801C1CFEF01F9CF72
:101820009093620780936107CDCFFE01E20FF31F13
:10183000819391932250310939832883D7CF209106
:101840005F0730916007232B41F420912C023091E7
:101850002D023093600720935F0720912A02309178
:101860002B022115310541F42DB73EB740912E02D0
:1018700050912F02241B350BE0915F07F091600718
:10188000E217F307A0F42E1B3F0B2817390778F057
:10189000AC014E5F5F4F2417350748F04E0F5F1FB6
:1018A0005093600740935F07819391939FCFF0E03F
:1018B000E0E09CCFCF93DF930097E9F0FC013297F3
:1018C00013821282A0916107B0916207ED0130E0AE
:1018D00020E01097A1F420813181820F931F209185
:1018E0005F07309160072817390709F061C0F0934E
:1018F0006007E0935F07DF91CF910895EA01CE176B
:10190000DF07E8F54A815B819E0141155105B1F77A
:10191000E901FB83EA8349915991C40FD51FEC1764
:10192000FD0761F4808191810296840F951FE90182
:1019300099838883828193819B838A83F0E0E0E0AE
:1019400012968D919C9113970097B9F52D913C912A
:101950001197CD010296820F931F20915F0730915E
:1019600060072817390739F6309751F5109262074A
:1019700010926107B0936007A0935F07BCCFD38339
:10198000C28340815181840F951FC817D90761F424
:101990004E5F5F4F88819981480F591F5183408363
:1019A0008A819B81938382832115310509F0B0CF11
:1019B000F0936207E09361079ECFFD01DC01C0CF89
:1019C00013821282D7CF4F925F926F927F928F9243
:1019D0009F92AF92BF92CF92DF92EF92FF920F93BE
:1019E0001F93CF93DF938C01009799F4CB01DF9184
:1019F000CF911F910F91FF90EF90DF90CF90BF900C
:101A0000AF909F908F907F906F905F904F900C94CD
:101A1000BE0BFC01E60FF71F9C0122503109E217B3
:101A2000F30708F4AEC0D901CD91DC911197C61728
:101A3000D70720F1C530D10578F0CE01049786177D
:101A4000970750F0C61BD70B2297C193D1936D9384
:101A50007C93CF010E945A0CC801DF91CF911F9156
:101A60000F91FF90EF90DF90CF90BF90AF909F903D
:101A70008F907F906F905F904F9008955B01AC1AAC
:101A8000BD0A4C018C0E9D1EA0916107B0916207AA
:101A9000512C412CF12CE12C109731F580915F07EE
:101AA000909160078815990509F05CC046165706A5
:101AB00008F058C080912A0290912B02009741F4BF
:101AC0008DB79EB740912E0250912F02841B950B2B
:101AD000E817F90708F055C0F0936007E0935F0737
:101AE000F90171836083B8CF8D919C911197129603
:101AF0006C90129713967C901397A815B90559F519
:101B00006C0142E0C40ED11CCA14DB0420F1AC010C
:101B10004A195B09DA011296159780F06282738286
:101B200051834083D9016D937C93E114F10471F0EA
:101B3000D7011396FC93EE9312978ECF22968C0FBB
:101B40009D1FF90191838083F301EFCFF09362072A
:101B5000E093610781CF4816590608F42C017D01F6
:101B6000D3019ACFCB010E94BE0B7C01009749F0B4
:101B7000AE01B8010E94C40DC8010E945A0C870131
:101B80006BCF10E000E068CFFB01DC0102C00190E8
:101B90000D9241505040D8F70895FB01DC010190AF
:101BA0000D920020E1F7089511E0C1E4D1E000E0DA
:101BB00006C0802FFE010E94A20B2196011DC23497
:0C1BC000D10780E00807A9F7F894FFCFD8
:101BCC002020202049474E4954494F4E204F4E204B
:101BDC0020202020004F70656E20446F6F727320A0
:101BEC00436F756E743D2020200000006307800059
:101BFC00000040001400540000000000AE038103FC
:101C0C00C50457037A0367035803000000002E0530
:101C1C00BB02C504C404456E74727920446F6F72A4
:101C2C00004D6F746F72686F6D6520536C696465DD
:101C3C0000536B796C6967687400536B796C6967D6
:101C4C006874204F706171756520436F76657220E2
:101C5C0053637265656E2069736E277420526574C8
:101C6C0072616374656400536B796C696768742086
:101C7C00496E736563742053637265656E20697376
:101C8C00206E6F74205265747261637465640052C7
:101C9C0069676874204B69746368656E204F76655C
:101CAC00726865616420437570626F617264204470
:101CBC006F6F72004C656674204B69746368656E57
:101CCC00204F7665726865616420437570626F6140
:101CDC00726420446F6F7200546F70204B69746390
:101CEC0068656E20447261776572004D6964646C3E
:101CFC0065204B69746368656E2044726177657208
:101D0C0000426F74746F6D204B69746368656E204C
:101D1C0044726177657200556E6465722D53696EFD
:101D2C006B20437570626F61726420446F6F720038
:101D3C0057696E6520536C69646520436162696EF6
:101D4C00657420446F6F72005574696C69747920E6
:101D5C00556E6465722042656E636820466C6170D6
:101D6C002D446F6F72005269676874205574696CEA
:101D7C0069747920556E6465722D42656E636820B6
:101D8C00447261776572004C656674205574696C99
:101D9C0069747920556E6465722D42656E63682096
:101DAC0044726177657200495420437570626F61AB
:101DBC00726420446F6F7200526967687420466CBD
:101DCC006F6F722D4C6576656C20437570626F6118
:101DDC00726420446F6F720052696768742D43659A
:101DEC006E74726520466C6F6F722D4C6576656CE7
:101DFC0020437570626F61726420446F6F72004C87
:101E0C006566742D43656E74726520466C6F6F72D7
:101E1C002D4C6576656C20437570626F6172642021
:101E2C00446F6F72004C65667420466C6F6F722D38
:101E3C004C6576656C20437570626F6172642044EA
:101E4C006F6F7200526967687420466C6F6F722DE9
:101E5C004C6576656C2044726177004D6964646CE6
:101E6C006520466C6F6F722D4C6576656C204472E4
:101E7C0061770042617468726F6F6D205369646999
:101E8C006E6720446F6F72005269676874204261FC
:101E9C007468726F6F6D20556E6465722D56616E2D
:101EAC0069747920446F6F722028576174657220B1
:101EBC00486561746572204172656129004C6566E4
:101ECC00742042617468726F6F6D20556E64657218
:101EDC002D56616E69747920446F6F720052696778
:101EEC006874204F7665722D48656164204C6F6371
:101EFC006B657220446F6F720043656E747265205F
:101F0C004F7665722D48656164204C6F636B65720A
:101F1C0020446F6F72004C656674204F7665722D8D
:101F2C0048656164204C6F636B657220446F6F72FF
:101F3C000042617468726F6F6D732057696E646FC5
:021F4C0077001C
:00000001FF
