:100000000C9463000C948B000C948B000C948B006C
:100010000C948B000C948B000C948B000C948B0034
:100020000C948B000C948B000C948B000C948B0024
:100030000C948B000C948B000C948B000C948B0014
:100040000C9466020C948B000C94D6020C94B002B3
:100050000C948B000C948B000C948B000C948B00F4
:100060000C948B000C948B000000000025002800ED
:100070002B0000000000240027002A0000000000E0
:1000800023002600290004040404040404040202DA
:100090000202020203030303030301020408102007
:1000A0004080010204081020010204081020000012
:1000B0000008000201000003040700000000000027
:1000C00000000803530511241FBECFEFD8E0DEBFA8
:1000D000CDBF21E0A2E2B1E001C01D92A53EB20772
:1000E000E1F711E0A0E0B1E0EEE2FFE002C0059030
:1000F0000D92A232B107D9F710E0C2E6D0E004C0F9
:100100002197FE010E949205C136D107C9F70E94CE
:100110003C030C948A070C9400003FB7F89480913C
:10012000300190913101A0913201B091330126B597
:10013000A89B05C02F3F19F00196A11DB11D3FBF1F
:10014000BA2FA92F982F8827BC01CD01620F711DEE
:10015000811D911D42E0660F771F881F991F4A95E8
:10016000D1F708950895AF92BF92CF92DF92EF92A8
:10017000FF920F931F93CF93DF936C017B018B0151
:10018000040F151FEB015E01AE18BF08C017D107A1
:1001900059F06991D601ED91FC910190F081E02D2B
:1001A000C6010995892B79F7C501DF91CF911F9180
:1001B0000F91FF90EF90DF90CF90BF90AF90089598
:1001C000FC01538D448D252F30E0842F90E0821B5D
:1001D000930B541710F0CF96089501970895FC01E2
:1001E000918D828D981761F0A28DAE0FBF2FB11D3A
:1001F0005D968C91928D9F5F9F73928F90E0089592
:100200008FEF9FEF08952FB7F8948091340190916C
:100210003501A0913601B09137012FBF8093400185
:1002200090934101A0934201B093430188E391E090
:100230000E94EF0097FF26C02FB7F89480913401F9
:1002400090913501A0913601B09137012FBF4091B7
:100250004001509141016091420170914301841B22
:10026000950BA60BB70B40913C0150913D0160915D
:100270003E0170913F0184179507A607B707B0F2BA
:100280008FEF9FEF0895FC01918D828D981731F0CB
:10029000828DE80FF11D858D90E008958FEF9FEF1F
:1002A0000895FC01918D228D892F90E0805C9F4FF5
:1002B000821B91098F739927089588E391E00E942A
:1002C000510121E0892B09F420E0822F089580E07C
:1002D00090E0892B29F00E945D0181110C940000AF
:1002E0000895FC01A48DA80FB92FB11DA35ABF4FCB
:1002F0002C91848D90E001968F739927848FA68925
:10030000B7892C93A089B1898C91837080648C9378
:10031000938D848D981306C00288F389E02D808127
:100320008F7D80830895EF92FF920F931F93CF9359
:10033000DF93EC0181E0888F9B8D8C8D98131AC020
:10034000E889F989808185FF15C09FB7F894EE8907
:10035000FF896083E889F989808183708064808364
:100360009FBF81E090E0DF91CF911F910F91FF90AF
:10037000EF900895F62E0B8D10E00F5F1F4F0F7357
:100380001127E02E8C8D8E110CC00FB607FCFACF12
:10039000E889F989808185FFF5CFCE010E9471013E
:1003A000F1CFEB8DEC0FFD2FF11DE35AFF4FF082E3
:1003B0009FB7F8940B8FEA89FB8980818062CFCF49
:1003C000CF93DF93EC01888D8823B9F0AA89BB898C
:1003D000E889F9898C9185FD03C0808186FD0DC077
:1003E0000FB607FCF7CF8C9185FFF2CF808185FF98
:1003F000EDCFCE010E947101E9CFDF91CF91089539
:10040000FC0101900020E9F73197AF01481B590B1F
:10041000BC0188E391E00C94B300FC0180819181E0
:10042000009711F00C94340608950F931F93CF9307
:10043000DF93EC0188819981009759F02A813B81F3
:100440002617370730F081E0DF91CF911F910F9190
:1004500008958B016F5F7F4F0E94BD06009759F092
:10046000998388831B830A832C813D81232B59F731
:10047000FC011082E8CF80E0E7CFCF93DF93EC015F
:10048000198218821B821A821D821C8270E060E031
:100490000E9415022881398181110FC02115310573
:1004A00019F0C9010E943406198218821D821C822B
:1004B0001B821A82DF91CF9108951D821C8260E217
:1004C00071E0C901DF91CF910C9483071F920F92C5
:1004D0000FB60F9211242F933F938F939F93AF9357
:1004E000BF938091340190913501A0913601B09174
:1004F000370130912F0123E0230F2D3758F5019656
:10050000A11DB11D20932F018093340190933501DB
:10051000A0933601B0933701809130019091310161
:10052000A0913201B09133010196A11DB11D8093BC
:10053000300190933101A0933201B0933301BF9108
:10054000AF919F918F913F912F910F900FBE0F9080
:100550001F90189526E8230F0296A11DB11DD2CF3A
:100560001F920F920FB60F9211242F933F934F9328
:100570005F936F937F938F939F93AF93BF93EF930B
:10058000FF9388E391E00E947101FF91EF91BF9189
:10059000AF919F918F917F916F915F914F913F911B
:1005A0002F910F900FBE0F901F9018951F920F92D2
:1005B0000FB60F9211242F938F939F93EF93FF9376
:1005C000E0914801F09149018081E0914E01F09164
:1005D0004F0182FD1BC09081809151018F5F8F730D
:1005E00020915201821741F0E0915101F0E0E85C66
:1005F000FE4F958F80935101FF91EF919F918F91C5
:100600002F910F900FBE0F901F9018958081F4CFFF
:10061000E8E3F1E01382128288EE93E0A0E0B0E01C
:1006200084839583A683B7838AE091E09183808356
:1006300085EC90E09587848784EC90E097878687A7
:1006400080EC90E0918B808B81EC90E0938B828B9F
:1006500082EC90E0958B848B86EC90E0978B868B78
:10066000118E128E138E148E8BED91E00E943D023E
:1006700085ED91E00C943D02CF93DF93CDB7DEB7CB
:100680002D970FB6F894DEBF0FBECDBF789484B51A
:10069000826084BD84B5816084BD85B5826085BD7E
:1006A00085B5816085BD80916E00816080936E000C
:1006B00010928100809181008260809381008091FE
:1006C00081008160809381008091800081608093AF
:1006D00080008091B10084608093B1008091B0006F
:1006E00081608093B00080917A00846080937A006A
:1006F00080917A00826080937A0080917A00816094
:1007000080937A0080917A00806880937A001092BA
:10071000C100E0914801F091490182E08083E091BD
:100720004401F09145011082E0914601F0914701AA
:100730008FEC808310925001E0914C01F0914D01BB
:1007400086E08083E0914A01F0914B0180818061D5
:100750008083E0914A01F0914B0180818860808321
:10076000E0914A01F0914B01808180688083E091A3
:100770004A01F0914B0180818F7D808381E08093DD
:100780002E0142E050E0FA01E656FF4F2491FA01B3
:10079000EA57FF4F84918823C9F090E0880F991F92
:1007A000FC01EE58FF4FA591B491FC01E859FF4FB1
:1007B000659174919FB7F8948C91E22FE0958E2308
:1007C0008C93DB018C91E823EC939FBF4F5F5F4FCD
:1007D0004D305105C1F660E3F62E00E010E051E324
:1007E000E52E88E391E00E945101892BD1F31A8212
:1007F00019821C821B821E821D8270E060E0CE0185
:1008000001960E94150229813A8181112CC021157F
:10081000310519F0C9010E9434061A8219821E821C
:100820001D821C821B820E94030197FD24C08C87BD
:100830001D86CD80DE80BFEFCB1ADB0AB601CE016C
:1008400001960E941502882371F329813A818D81D6
:100850009E81BE01645F7F4F820F931F0E948307BA
:10086000DE82CD82E0CF1E821D8260E271E0C9018E
:100870000E948307D8CF8091DB019091DC01009723
:1008800009F4B7C069817A816115710509F4AFC0B7
:100890004091DD015091DE012D813E8142175307C9
:1008A00008F4A5C00E9483078D819E819093E0018A
:1008B0008093DF011E821D82CE0101960E940D02EF
:1008C0008091DF019091E0018230910538F0E09154
:1008D000DB01F091DC01309709F0A2C010922201F7
:1008E000E2E2F1E02081263409F09CC081E08093AF
:1008F0002E0180912E01811149C0A3E2B1E09D013A
:1009000082E090E0FC01E255FF4F4491FC01E65685
:10091000FF4F5491FC01EA57FF4FE491EE23C9F0D9
:10092000442359F0433009F4A5C008F098C0413081
:1009300009F4A6C0423009F4A7C0F0E0EE0FFF1F93
:10094000E458FF4F65917491FB014081542341E0CD
:1009500009F440E04170F90141939F0101968D3007
:10096000910581F6FE0131968D91882309F499C095
:10097000E082319621E0AE32B207B1F7CE010196A6
:100980000E9400028EE191E00E9400020E948D0010
:100990002B013C0184EF882E99249394A12CB12C37
:1009A0000E948D006419750986099709683E734095
:1009B00081059105A8F381E0881A9108A108B10882
:1009C000A8EE4A0EA3E05A1E611C711C811491040A
:1009D000A104B10429F70115110509F402CF0E9401
:1009E0005D01882309F4FDCE0E940000F8CE0E942C
:1009F000340689819A819093DC018093DB018B819D
:100A00009C819093DE018093DD018D819E81909386
:100A1000E0018093DF011A8219821C821B824ACF77
:100A2000319660CF029730F0E091DB01F091DC016C
:100A3000309751F410922201E2E2F1E080818E348D
:100A400029F410922E0155CF3196F8CF88E191E02C
:100A50000E9400028EE191E00E9400024ACF4730DE
:100A6000B1F04830D1F0443009F067CF40918000B8
:100A70004F7D03C0409180004F77409380005DCF51
:100A800044B54F7744BD59CF44B54F7DFBCF40911E
:100A9000B0004F774093B00050CF4091B0004F7DF1
:100AA000F9CFF08266CF85ED91E00E940D028BEDCB
:100AB00091E00C940D022F923F924F925F926F92B1
:100AC0007F928F929F92AF92BF92CF92DF92EF92DE
:100AD000FF920F931F93CF93DF93CDB7DEB7CA1B5F
:100AE000DB0B0FB6F894DEBF0FBECDBF09942A888A
:100AF000398848885F846E847D848C849B84AA8432
:100B0000B984C884DF80EE80FD800C811B81AA81BE
:100B1000B981CE0FD11D0FB6F894DEBF0FBECDBF89
:100B2000ED010895EE0FFF1F0590F491E02D09945B
:100B30000F931F93CF93DF938230910510F482E0DF
:100B400090E0E091E301F091E40130E020E0B0E0DA
:100B5000A0E0309799F42115310509F44AC0281B0B
:100B6000390B24303105D8F58A819B8161157105D7
:100B700089F1FB0193838283FE0111C04081518181
:100B80000281138148175907E0F04817590799F473
:100B9000109761F012960C93129713961C9332964D
:100BA000CF01DF91CF911F910F9108950093E30141
:100BB0001093E401F4CF2115310551F0421753078A
:100BC00038F0A901DB019A01BD01DF01F801C1CFB5
:100BD000EF01F9CF9093E4018093E301CDCFFE01C3
:100BE000E20FF31F819391932250310939832883B7
:100BF000D7CF2091E1013091E201232B41F42091E4
:100C00000201309103013093E2012093E101209130
:100C10000001309101012115310541F42DB73EB796
:100C20004091040150910501241B350BE091E10135
:100C3000F091E201E217F307A0F42E1B3F0B2817F7
:100C4000390778F0AC014E5F5F4F2417350748F045
:100C50004E0F5F1F5093E2014093E1018193919306
:100C60009FCFF0E0E0E09CCFCF93DF930097E9F0D7
:100C7000FC01329713821282A091E301B091E4014A
:100C8000ED0130E020E01097A1F420813181820F46
:100C9000931F2091E1013091E2012817390709F0F3
:100CA00061C0F093E201E093E101DF91CF910895FB
:100CB000EA01CE17DF07E8F54A815B819E01411505
:100CC0005105B1F7E901FB83EA8349915991C40FBA
:100CD000D51FEC17FD0761F4808191810296840F86
:100CE000951FE90199838883828193819B838A83FD
:100CF000F0E0E0E012968D919C9113970097B9F582
:100D00002D913C911197CD010296820F931F209156
:100D1000E1013091E2012817390739F6309751F592
:100D20001092E4011092E301B093E201A093E1017B
:100D3000BCCFD383C28340815181840F951FC817D4
:100D4000D90761F44E5F5F4F88819981480F591F21
:100D5000518340838A819B8193838283211531054E
:100D600009F0B0CFF093E401E093E3019ECFFD01E1
:100D7000DC01C0CF13821282D7CFB0E0A0E0E3EC59
:100D8000F6E00C945D058C01009751F4CB010E94B4
:100D900098058C01C801CDB7DEB7E0E10C94790568
:100DA000FC01E60FF71F9C0122503109E217F307FF
:100DB00008F49DC0D901CD91DC911197C617D707D2
:100DC00098F0C530D10530F3CE0104978617970708
:100DD00008F3C61BD70B2297C193D1936D937C93D5
:100DE000CF010E943406D6CF5B01AC1ABD0A4C017C
:100DF0008C0E9D1EA091E301B091E401512C412C79
:100E0000F12CE12C109731F58091E1019091E201F4
:100E10008815990509F05CC04616570608F058C0B9
:100E20008091000190910101009741F48DB79EB728
:100E30004091040150910501841B950BE817F907B7
:100E400008F055C0F093E201E093E101F9017183EC
:100E50006083A0CF8D919C91119712966C90129700
:100E600013967C901397A815B90559F56C0142E0CB
:100E7000C40ED11CCA14DB0420F1AC014A195B0971
:100E8000DA011296159780F0628273825183408353
:100E9000D9016D937C93E114F10471F0D70113969D
:100EA000FC93EE93129776CF22968C0F9D1FF9013B
:100EB00091838083F301EFCFF093E401E093E301AA
:100EC00069CF4816590608F42C017D01D3019ACF49
:100ED000CB010E9498057C01009749F0AE01B80152
:100EE0000E947A07C8010E943406870153CF10E0A0
:100EF00000E050CFFB01DC0102C001900D92415097
:100F00005040D8F70895FB01DC0101900D920020BC
:100F1000E1F7089510E0C2E6D0E004C0FE010E94AF
:0E0F200092052196C336D107C9F7F894FFCF8A
:100F2E000000E5018000000000009301B300E00026
:100F3E00E0015101EF0043014572726F72000D0A1C
:020F4E000000A1
:00000001FF
